{
  "_format": "hh-sol-artifact-1",
  "contractName": "ComplianceTokenRegistry",
  "sourceName": "contracts/ComplianceTokenRegistry.sol",
  "abi": [
    {
      "inputs": [
        {
          "internalType": "string",
          "name": "uri_",
          "type": "string"
        },
        {
          "internalType": "address",
          "name": "_admin",
          "type": "address"
        },
        {
          "internalType": "address",
          "name": "_authority",
          "type": "address"
        }
      ],
      "stateMutability": "nonpayable",
      "type": "constructor"
    },
    {
      "inputs": [],
      "name": "AccessControlBadConfirmation",
      "type": "error"
    },
    {
      "inputs": [
        {
          "internalType": "address",
          "name": "account",
          "type": "address"
        },
        {
          "internalType": "bytes32",
          "name": "neededRole",
          "type": "bytes32"
        }
      ],
      "name": "AccessControlUnauthorizedAccount",
      "type": "error"
    },
    {
      "inputs": [
        {
          "internalType": "address",
          "name": "sender",
          "type": "address"
        },
        {
          "internalType": "uint256",
          "name": "balance",
          "type": "uint256"
        },
        {
          "internalType": "uint256",
          "name": "needed",
          "type": "uint256"
        },
        {
          "internalType": "uint256",
          "name": "tokenId",
          "type": "uint256"
        }
      ],
      "name": "ERC1155InsufficientBalance",
      "type": "error"
    },
    {
      "inputs": [
        {
          "internalType": "address",
          "name": "approver",
          "type": "address"
        }
      ],
      "name": "ERC1155InvalidApprover",
      "type": "error"
    },
    {
      "inputs": [
        {
          "internalType": "uint256",
          "name": "idsLength",
          "type": "uint256"
        },
        {
          "internalType": "uint256",
          "name": "valuesLength",
          "type": "uint256"
        }
      ],
      "name": "ERC1155InvalidArrayLength",
      "type": "error"
    },
    {
      "inputs": [
        {
          "internalType": "address",
          "name": "operator",
          "type": "address"
        }
      ],
      "name": "ERC1155InvalidOperator",
      "type": "error"
    },
    {
      "inputs": [
        {
          "internalType": "address",
          "name": "receiver",
          "type": "address"
        }
      ],
      "name": "ERC1155InvalidReceiver",
      "type": "error"
    },
    {
      "inputs": [
        {
          "internalType": "address",
          "name": "sender",
          "type": "address"
        }
      ],
      "name": "ERC1155InvalidSender",
      "type": "error"
    },
    {
      "inputs": [
        {
          "internalType": "address",
          "name": "operator",
          "type": "address"
        },
        {
          "internalType": "address",
          "name": "owner",
          "type": "address"
        }
      ],
      "name": "ERC1155MissingApprovalForAll",
      "type": "error"
    },
    {
      "anonymous": false,
      "inputs": [
        {
          "indexed": true,
          "internalType": "address",
          "name": "account",
          "type": "address"
        },
        {
          "indexed": true,
          "internalType": "address",
          "name": "operator",
          "type": "address"
        },
        {
          "indexed": false,
          "internalType": "bool",
          "name": "approved",
          "type": "bool"
        }
      ],
      "name": "ApprovalForAll",
      "type": "event"
    },
    {
      "anonymous": false,
      "inputs": [
        {
          "indexed": true,
          "internalType": "address",
          "name": "sender",
          "type": "address"
        },
        {
          "indexed": true,
          "internalType": "address",
          "name": "IF",
          "type": "address"
        },
        {
          "indexed": false,
          "internalType": "uint256",
          "name": "tokenType",
          "type": "uint256"
        }
      ],
      "name": "AuthorizedIf",
      "type": "event"
    },
    {
      "anonymous": false,
      "inputs": [
        {
          "indexed": true,
          "internalType": "uint256",
          "name": "tokenType",
          "type": "uint256"
        },
        {
          "indexed": false,
          "internalType": "address",
          "name": "module",
          "type": "address"
        }
      ],
      "name": "ComplianceModuleSet",
      "type": "event"
    },
    {
      "anonymous": false,
      "inputs": [
        {
          "indexed": true,
          "internalType": "uint256",
          "name": "tokenType",
          "type": "uint256"
        }
      ],
      "name": "ComplianceModuleUnset",
      "type": "event"
    },
    {
      "anonymous": false,
      "inputs": [
        {
          "indexed": false,
          "internalType": "address",
          "name": "member",
          "type": "address"
        }
      ],
      "name": "DisabledAddress",
      "type": "event"
    },
    {
      "anonymous": false,
      "inputs": [
        {
          "indexed": false,
          "internalType": "address",
          "name": "member",
          "type": "address"
        }
      ],
      "name": "EnabledAddress",
      "type": "event"
    },
    {
      "anonymous": false,
      "inputs": [
        {
          "indexed": true,
          "internalType": "bytes32",
          "name": "role",
          "type": "bytes32"
        },
        {
          "indexed": true,
          "internalType": "bytes32",
          "name": "previousAdminRole",
          "type": "bytes32"
        },
        {
          "indexed": true,
          "internalType": "bytes32",
          "name": "newAdminRole",
          "type": "bytes32"
        }
      ],
      "name": "RoleAdminChanged",
      "type": "event"
    },
    {
      "anonymous": false,
      "inputs": [
        {
          "indexed": true,
          "internalType": "bytes32",
          "name": "role",
          "type": "bytes32"
        },
        {
          "indexed": true,
          "internalType": "address",
          "name": "account",
          "type": "address"
        },
        {
          "indexed": true,
          "internalType": "address",
          "name": "sender",
          "type": "address"
        }
      ],
      "name": "RoleGranted",
      "type": "event"
    },
    {
      "anonymous": false,
      "inputs": [
        {
          "indexed": true,
          "internalType": "bytes32",
          "name": "role",
          "type": "bytes32"
        },
        {
          "indexed": true,
          "internalType": "address",
          "name": "account",
          "type": "address"
        },
        {
          "indexed": true,
          "internalType": "address",
          "name": "sender",
          "type": "address"
        }
      ],
      "name": "RoleRevoked",
      "type": "event"
    },
    {
      "anonymous": false,
      "inputs": [
        {
          "indexed": true,
          "internalType": "address",
          "name": "issuer",
          "type": "address"
        },
        {
          "indexed": true,
          "internalType": "address",
          "name": "to",
          "type": "address"
        },
        {
          "indexed": false,
          "internalType": "uint256",
          "name": "tokenType",
          "type": "uint256"
        },
        {
          "indexed": false,
          "internalType": "uint256",
          "name": "id",
          "type": "uint256"
        }
      ],
      "name": "TokenIssued",
      "type": "event"
    },
    {
      "anonymous": false,
      "inputs": [
        {
          "indexed": true,
          "internalType": "address",
          "name": "operator",
          "type": "address"
        },
        {
          "indexed": true,
          "internalType": "address",
          "name": "from",
          "type": "address"
        },
        {
          "indexed": true,
          "internalType": "address",
          "name": "to",
          "type": "address"
        },
        {
          "indexed": false,
          "internalType": "uint256[]",
          "name": "ids",
          "type": "uint256[]"
        },
        {
          "indexed": false,
          "internalType": "uint256[]",
          "name": "values",
          "type": "uint256[]"
        }
      ],
      "name": "TransferBatch",
      "type": "event"
    },
    {
      "anonymous": false,
      "inputs": [
        {
          "indexed": true,
          "internalType": "address",
          "name": "operator",
          "type": "address"
        },
        {
          "indexed": true,
          "internalType": "address",
          "name": "from",
          "type": "address"
        },
        {
          "indexed": true,
          "internalType": "address",
          "name": "to",
          "type": "address"
        },
        {
          "indexed": false,
          "internalType": "uint256",
          "name": "id",
          "type": "uint256"
        },
        {
          "indexed": false,
          "internalType": "uint256",
          "name": "value",
          "type": "uint256"
        }
      ],
      "name": "TransferSingle",
      "type": "event"
    },
    {
      "anonymous": false,
      "inputs": [
        {
          "indexed": true,
          "internalType": "uint256",
          "name": "tokenType",
          "type": "uint256"
        },
        {
          "indexed": false,
          "internalType": "bool",
          "name": "enabled",
          "type": "bool"
        }
      ],
      "name": "TypeCallCreatedClientSet",
      "type": "event"
    },
    {
      "anonymous": false,
      "inputs": [
        {
          "indexed": true,
          "internalType": "uint256",
          "name": "tokenType",
          "type": "uint256"
        },
        {
          "indexed": false,
          "internalType": "bool",
          "name": "enabled",
          "type": "bool"
        }
      ],
      "name": "TypeCallCreatedIssuerSet",
      "type": "event"
    },
    {
      "anonymous": false,
      "inputs": [
        {
          "indexed": true,
          "internalType": "uint256",
          "name": "tokenType",
          "type": "uint256"
        },
        {
          "indexed": false,
          "internalType": "bool",
          "name": "enabled",
          "type": "bool"
        }
      ],
      "name": "TypeCallDestroyedClientSet",
      "type": "event"
    },
    {
      "anonymous": false,
      "inputs": [
        {
          "indexed": true,
          "internalType": "uint256",
          "name": "tokenType",
          "type": "uint256"
        },
        {
          "indexed": false,
          "internalType": "bool",
          "name": "enabled",
          "type": "bool"
        }
      ],
      "name": "TypeCallDestroyedIssuerSet",
      "type": "event"
    },
    {
      "anonymous": false,
      "inputs": [
        {
          "indexed": true,
          "internalType": "uint256",
          "name": "tokenType",
          "type": "uint256"
        },
        {
          "indexed": false,
          "internalType": "bool",
          "name": "enabled",
          "type": "bool"
        }
      ],
      "name": "TypeCallTransferredClientSet",
      "type": "event"
    },
    {
      "anonymous": false,
      "inputs": [
        {
          "indexed": true,
          "internalType": "uint256",
          "name": "tokenType",
          "type": "uint256"
        },
        {
          "indexed": false,
          "internalType": "bool",
          "name": "enabled",
          "type": "bool"
        }
      ],
      "name": "TypeCallTransferredIssuerSet",
      "type": "event"
    },
    {
      "anonymous": false,
      "inputs": [
        {
          "indexed": true,
          "internalType": "uint256",
          "name": "tokenType",
          "type": "uint256"
        },
        {
          "indexed": false,
          "internalType": "bool",
          "name": "enabled",
          "type": "bool"
        }
      ],
      "name": "TypeResultOverrideSet",
      "type": "event"
    },
    {
      "anonymous": false,
      "inputs": [
        {
          "indexed": true,
          "internalType": "uint256",
          "name": "tokenType",
          "type": "uint256"
        },
        {
          "indexed": false,
          "internalType": "bool",
          "name": "enabled",
          "type": "bool"
        }
      ],
      "name": "TypeRevertIfFalseSet",
      "type": "event"
    },
    {
      "anonymous": false,
      "inputs": [
        {
          "indexed": false,
          "internalType": "string",
          "name": "value",
          "type": "string"
        },
        {
          "indexed": true,
          "internalType": "uint256",
          "name": "id",
          "type": "uint256"
        }
      ],
      "name": "URI",
      "type": "event"
    },
    {
      "inputs": [],
      "name": "AUDIT_ROLE",
      "outputs": [
        {
          "internalType": "bytes32",
          "name": "",
          "type": "bytes32"
        }
      ],
      "stateMutability": "view",
      "type": "function"
    },
    {
      "inputs": [],
      "name": "COMPLIANCE_ROLE",
      "outputs": [
        {
          "internalType": "bytes32",
          "name": "",
          "type": "bytes32"
        }
      ],
      "stateMutability": "view",
      "type": "function"
    },
    {
      "inputs": [],
      "name": "DEFAULT_ADMIN_ROLE",
      "outputs": [
        {
          "internalType": "bytes32",
          "name": "",
          "type": "bytes32"
        }
      ],
      "stateMutability": "view",
      "type": "function"
    },
    {
      "inputs": [],
      "name": "ISSUER_ROLE",
      "outputs": [
        {
          "internalType": "bytes32",
          "name": "",
          "type": "bytes32"
        }
      ],
      "stateMutability": "view",
      "type": "function"
    },
    {
      "inputs": [],
      "name": "NET_ADM_ROLE",
      "outputs": [
        {
          "internalType": "bytes32",
          "name": "",
          "type": "bytes32"
        }
      ],
      "stateMutability": "view",
      "type": "function"
    },
    {
      "inputs": [
        {
          "internalType": "address",
          "name": "IF",
          "type": "address"
        },
        {
          "internalType": "uint256",
          "name": "tokenType",
          "type": "uint256"
        }
      ],
      "name": "authorizeIf",
      "outputs": [],
      "stateMutability": "nonpayable",
      "type": "function"
    },
    {
      "inputs": [
        {
          "internalType": "address",
          "name": "account",
          "type": "address"
        },
        {
          "internalType": "uint256",
          "name": "id",
          "type": "uint256"
        }
      ],
      "name": "balanceOf",
      "outputs": [
        {
          "internalType": "uint256",
          "name": "",
          "type": "uint256"
        }
      ],
      "stateMutability": "view",
      "type": "function"
    },
    {
      "inputs": [
        {
          "internalType": "address[]",
          "name": "accounts",
          "type": "address[]"
        },
        {
          "internalType": "uint256[]",
          "name": "ids",
          "type": "uint256[]"
        }
      ],
      "name": "balanceOfBatch",
      "outputs": [
        {
          "internalType": "uint256[]",
          "name": "",
          "type": "uint256[]"
        }
      ],
      "stateMutability": "view",
      "type": "function"
    },
    {
      "inputs": [
        {
          "internalType": "address",
          "name": "newAuthority",
          "type": "address"
        }
      ],
      "name": "changeAuthority",
      "outputs": [],
      "stateMutability": "nonpayable",
      "type": "function"
    },
    {
      "inputs": [
        {
          "internalType": "address",
          "name": "member",
          "type": "address"
        }
      ],
      "name": "disableAddress",
      "outputs": [],
      "stateMutability": "nonpayable",
      "type": "function"
    },
    {
      "inputs": [
        {
          "internalType": "address",
          "name": "member",
          "type": "address"
        }
      ],
      "name": "enableAddress",
      "outputs": [],
      "stateMutability": "nonpayable",
      "type": "function"
    },
    {
      "inputs": [
        {
          "internalType": "uint256",
          "name": "tokenType",
          "type": "uint256"
        }
      ],
      "name": "getComplianceModule",
      "outputs": [
        {
          "internalType": "address",
          "name": "",
          "type": "address"
        }
      ],
      "stateMutability": "view",
      "type": "function"
    },
    {
      "inputs": [
        {
          "internalType": "address",
          "name": "to",
          "type": "address"
        },
        {
          "internalType": "uint256",
          "name": "tokenType",
          "type": "uint256"
        }
      ],
      "name": "getLastToken",
      "outputs": [
        {
          "components": [
            {
              "internalType": "uint256",
              "name": "id",
              "type": "uint256"
            },
            {
              "internalType": "address",
              "name": "client",
              "type": "address"
            },
            {
              "internalType": "uint256",
              "name": "tokenType",
              "type": "uint256"
            },
            {
              "internalType": "uint256",
              "name": "expirationDate",
              "type": "uint256"
            },
            {
              "internalType": "uint256",
              "name": "issueDate",
              "type": "uint256"
            },
            {
              "internalType": "address",
              "name": "issuer",
              "type": "address"
            },
            {
              "internalType": "bool",
              "name": "isRectifier",
              "type": "bool"
            },
            {
              "internalType": "string",
              "name": "notes",
              "type": "string"
            },
            {
              "internalType": "bool",
              "name": "tokenResult",
              "type": "bool"
            },
            {
              "internalType": "string",
              "name": "tokenInfo",
              "type": "string"
            },
            {
              "components": [
                {
                  "internalType": "uint256",
                  "name": "value_1",
                  "type": "uint256"
                },
                {
                  "internalType": "uint256",
                  "name": "value_2",
                  "type": "uint256"
                },
                {
                  "internalType": "uint256",
                  "name": "value_3",
                  "type": "uint256"
                },
                {
                  "internalType": "uint256",
                  "name": "value_4",
                  "type": "uint256"
                },
                {
                  "internalType": "uint256",
                  "name": "date_1",
                  "type": "uint256"
                },
                {
                  "internalType": "uint256",
                  "name": "date_2",
                  "type": "uint256"
                },
                {
                  "internalType": "uint256",
                  "name": "date_3",
                  "type": "uint256"
                },
                {
                  "internalType": "uint256",
                  "name": "date_4",
                  "type": "uint256"
                },
                {
                  "internalType": "string",
                  "name": "text_1",
                  "type": "string"
                },
                {
                  "internalType": "string",
                  "name": "text_2",
                  "type": "string"
                },
                {
                  "internalType": "string",
                  "name": "text_3",
                  "type": "string"
                },
                {
                  "internalType": "string",
                  "name": "text_4",
                  "type": "string"
                },
                {
                  "internalType": "bool",
                  "name": "bool_1",
                  "type": "bool"
                },
                {
                  "internalType": "bool",
                  "name": "bool_2",
                  "type": "bool"
                },
                {
                  "internalType": "bool",
                  "name": "bool_3",
                  "type": "bool"
                },
                {
                  "internalType": "bool",
                  "name": "bool_4",
                  "type": "bool"
                }
              ],
              "internalType": "struct CommonTypes.TokenExtraDataVC",
              "name": "extra",
              "type": "tuple"
            }
          ],
          "internalType": "struct CommonTypes.TokenData",
          "name": "",
          "type": "tuple"
        }
      ],
      "stateMutability": "view",
      "type": "function"
    },
    {
      "inputs": [
        {
          "internalType": "bytes32",
          "name": "role",
          "type": "bytes32"
        }
      ],
      "name": "getRoleAdmin",
      "outputs": [
        {
          "internalType": "bytes32",
          "name": "",
          "type": "bytes32"
        }
      ],
      "stateMutability": "view",
      "type": "function"
    },
    {
      "inputs": [
        {
          "internalType": "address",
          "name": "to",
          "type": "address"
        },
        {
          "internalType": "uint256",
          "name": "_tokenId",
          "type": "uint256"
        }
      ],
      "name": "getTokenById",
      "outputs": [
        {
          "components": [
            {
              "internalType": "uint256",
              "name": "id",
              "type": "uint256"
            },
            {
              "internalType": "address",
              "name": "client",
              "type": "address"
            },
            {
              "internalType": "uint256",
              "name": "tokenType",
              "type": "uint256"
            },
            {
              "internalType": "uint256",
              "name": "expirationDate",
              "type": "uint256"
            },
            {
              "internalType": "uint256",
              "name": "issueDate",
              "type": "uint256"
            },
            {
              "internalType": "address",
              "name": "issuer",
              "type": "address"
            },
            {
              "internalType": "bool",
              "name": "isRectifier",
              "type": "bool"
            },
            {
              "internalType": "string",
              "name": "notes",
              "type": "string"
            },
            {
              "internalType": "bool",
              "name": "tokenResult",
              "type": "bool"
            },
            {
              "internalType": "string",
              "name": "tokenInfo",
              "type": "string"
            },
            {
              "components": [
                {
                  "internalType": "uint256",
                  "name": "value_1",
                  "type": "uint256"
                },
                {
                  "internalType": "uint256",
                  "name": "value_2",
                  "type": "uint256"
                },
                {
                  "internalType": "uint256",
                  "name": "value_3",
                  "type": "uint256"
                },
                {
                  "internalType": "uint256",
                  "name": "value_4",
                  "type": "uint256"
                },
                {
                  "internalType": "uint256",
                  "name": "date_1",
                  "type": "uint256"
                },
                {
                  "internalType": "uint256",
                  "name": "date_2",
                  "type": "uint256"
                },
                {
                  "internalType": "uint256",
                  "name": "date_3",
                  "type": "uint256"
                },
                {
                  "internalType": "uint256",
                  "name": "date_4",
                  "type": "uint256"
                },
                {
                  "internalType": "string",
                  "name": "text_1",
                  "type": "string"
                },
                {
                  "internalType": "string",
                  "name": "text_2",
                  "type": "string"
                },
                {
                  "internalType": "string",
                  "name": "text_3",
                  "type": "string"
                },
                {
                  "internalType": "string",
                  "name": "text_4",
                  "type": "string"
                },
                {
                  "internalType": "bool",
                  "name": "bool_1",
                  "type": "bool"
                },
                {
                  "internalType": "bool",
                  "name": "bool_2",
                  "type": "bool"
                },
                {
                  "internalType": "bool",
                  "name": "bool_3",
                  "type": "bool"
                },
                {
                  "internalType": "bool",
                  "name": "bool_4",
                  "type": "bool"
                }
              ],
              "internalType": "struct CommonTypes.TokenExtraDataVC",
              "name": "extra",
              "type": "tuple"
            }
          ],
          "internalType": "struct CommonTypes.TokenData",
          "name": "",
          "type": "tuple"
        }
      ],
      "stateMutability": "view",
      "type": "function"
    },
    {
      "inputs": [
        {
          "internalType": "bytes32",
          "name": "role",
          "type": "bytes32"
        },
        {
          "internalType": "address",
          "name": "account",
          "type": "address"
        }
      ],
      "name": "grantRole",
      "outputs": [],
      "stateMutability": "nonpayable",
      "type": "function"
    },
    {
      "inputs": [
        {
          "internalType": "bytes32",
          "name": "role",
          "type": "bytes32"
        },
        {
          "internalType": "address",
          "name": "account",
          "type": "address"
        }
      ],
      "name": "hasRole",
      "outputs": [
        {
          "internalType": "bool",
          "name": "",
          "type": "bool"
        }
      ],
      "stateMutability": "view",
      "type": "function"
    },
    {
      "inputs": [
        {
          "internalType": "address",
          "name": "account",
          "type": "address"
        },
        {
          "internalType": "address",
          "name": "operator",
          "type": "address"
        }
      ],
      "name": "isApprovedForAll",
      "outputs": [
        {
          "internalType": "bool",
          "name": "",
          "type": "bool"
        }
      ],
      "stateMutability": "view",
      "type": "function"
    },
    {
      "inputs": [
        {
          "internalType": "address",
          "name": "member",
          "type": "address"
        }
      ],
      "name": "isEnabledAddress",
      "outputs": [
        {
          "internalType": "bool",
          "name": "isEnabled",
          "type": "bool"
        }
      ],
      "stateMutability": "view",
      "type": "function"
    },
    {
      "inputs": [
        {
          "internalType": "uint256",
          "name": "",
          "type": "uint256"
        }
      ],
      "name": "isTypeCallCreatedClient",
      "outputs": [
        {
          "internalType": "bool",
          "name": "",
          "type": "bool"
        }
      ],
      "stateMutability": "view",
      "type": "function"
    },
    {
      "inputs": [
        {
          "internalType": "uint256",
          "name": "",
          "type": "uint256"
        }
      ],
      "name": "isTypeCallCreatedIssuer",
      "outputs": [
        {
          "internalType": "bool",
          "name": "",
          "type": "bool"
        }
      ],
      "stateMutability": "view",
      "type": "function"
    },
    {
      "inputs": [
        {
          "internalType": "uint256",
          "name": "",
          "type": "uint256"
        }
      ],
      "name": "isTypeCallDestroyedClient",
      "outputs": [
        {
          "internalType": "bool",
          "name": "",
          "type": "bool"
        }
      ],
      "stateMutability": "view",
      "type": "function"
    },
    {
      "inputs": [
        {
          "internalType": "uint256",
          "name": "",
          "type": "uint256"
        }
      ],
      "name": "isTypeCallDestroyedIssuer",
      "outputs": [
        {
          "internalType": "bool",
          "name": "",
          "type": "bool"
        }
      ],
      "stateMutability": "view",
      "type": "function"
    },
    {
      "inputs": [
        {
          "internalType": "uint256",
          "name": "",
          "type": "uint256"
        }
      ],
      "name": "isTypeCallTransferredClient",
      "outputs": [
        {
          "internalType": "bool",
          "name": "",
          "type": "bool"
        }
      ],
      "stateMutability": "view",
      "type": "function"
    },
    {
      "inputs": [
        {
          "internalType": "uint256",
          "name": "",
          "type": "uint256"
        }
      ],
      "name": "isTypeCallTransferredIssuer",
      "outputs": [
        {
          "internalType": "bool",
          "name": "",
          "type": "bool"
        }
      ],
      "stateMutability": "view",
      "type": "function"
    },
    {
      "inputs": [
        {
          "internalType": "uint256",
          "name": "",
          "type": "uint256"
        }
      ],
      "name": "isTypeResultOverride",
      "outputs": [
        {
          "internalType": "bool",
          "name": "",
          "type": "bool"
        }
      ],
      "stateMutability": "view",
      "type": "function"
    },
    {
      "inputs": [
        {
          "internalType": "uint256",
          "name": "",
          "type": "uint256"
        }
      ],
      "name": "isTypeRevertIfFalse",
      "outputs": [
        {
          "internalType": "bool",
          "name": "",
          "type": "bool"
        }
      ],
      "stateMutability": "view",
      "type": "function"
    },
    {
      "inputs": [
        {
          "internalType": "address",
          "name": "to",
          "type": "address"
        },
        {
          "internalType": "uint256",
          "name": "tokenType",
          "type": "uint256"
        },
        {
          "internalType": "bool",
          "name": "tokenResult",
          "type": "bool"
        },
        {
          "internalType": "bool",
          "name": "isRectifier",
          "type": "bool"
        },
        {
          "internalType": "string",
          "name": "notes",
          "type": "string"
        },
        {
          "internalType": "string",
          "name": "tokenInfo",
          "type": "string"
        },
        {
          "components": [
            {
              "internalType": "uint256",
              "name": "value_1",
              "type": "uint256"
            },
            {
              "internalType": "uint256",
              "name": "value_2",
              "type": "uint256"
            },
            {
              "internalType": "uint256",
              "name": "value_3",
              "type": "uint256"
            },
            {
              "internalType": "uint256",
              "name": "value_4",
              "type": "uint256"
            },
            {
              "internalType": "uint256",
              "name": "date_1",
              "type": "uint256"
            },
            {
              "internalType": "uint256",
              "name": "date_2",
              "type": "uint256"
            },
            {
              "internalType": "uint256",
              "name": "date_3",
              "type": "uint256"
            },
            {
              "internalType": "uint256",
              "name": "date_4",
              "type": "uint256"
            },
            {
              "internalType": "string",
              "name": "text_1",
              "type": "string"
            },
            {
              "internalType": "string",
              "name": "text_2",
              "type": "string"
            },
            {
              "internalType": "string",
              "name": "text_3",
              "type": "string"
            },
            {
              "internalType": "string",
              "name": "text_4",
              "type": "string"
            },
            {
              "internalType": "bool",
              "name": "bool_1",
              "type": "bool"
            },
            {
              "internalType": "bool",
              "name": "bool_2",
              "type": "bool"
            },
            {
              "internalType": "bool",
              "name": "bool_3",
              "type": "bool"
            },
            {
              "internalType": "bool",
              "name": "bool_4",
              "type": "bool"
            }
          ],
          "internalType": "struct CommonTypes.TokenExtraDataVC",
          "name": "extra",
          "type": "tuple"
        }
      ],
      "name": "issueToken",
      "outputs": [],
      "stateMutability": "nonpayable",
      "type": "function"
    },
    {
      "inputs": [],
      "name": "name",
      "outputs": [
        {
          "internalType": "string",
          "name": "",
          "type": "string"
        }
      ],
      "stateMutability": "view",
      "type": "function"
    },
    {
      "inputs": [
        {
          "internalType": "address",
          "name": "to",
          "type": "address"
        },
        {
          "internalType": "uint256",
          "name": "tokenType",
          "type": "uint256"
        }
      ],
      "name": "ocGetLastToken",
      "outputs": [
        {
          "components": [
            {
              "internalType": "uint256",
              "name": "id",
              "type": "uint256"
            },
            {
              "internalType": "address",
              "name": "client",
              "type": "address"
            },
            {
              "internalType": "uint256",
              "name": "tokenType",
              "type": "uint256"
            },
            {
              "internalType": "uint256",
              "name": "expirationDate",
              "type": "uint256"
            },
            {
              "internalType": "uint256",
              "name": "issueDate",
              "type": "uint256"
            },
            {
              "internalType": "address",
              "name": "issuer",
              "type": "address"
            },
            {
              "internalType": "bool",
              "name": "isRectifier",
              "type": "bool"
            },
            {
              "internalType": "string",
              "name": "notes",
              "type": "string"
            },
            {
              "internalType": "bool",
              "name": "tokenResult",
              "type": "bool"
            },
            {
              "internalType": "string",
              "name": "tokenInfo",
              "type": "string"
            },
            {
              "components": [
                {
                  "internalType": "uint256",
                  "name": "value_1",
                  "type": "uint256"
                },
                {
                  "internalType": "uint256",
                  "name": "value_2",
                  "type": "uint256"
                },
                {
                  "internalType": "uint256",
                  "name": "value_3",
                  "type": "uint256"
                },
                {
                  "internalType": "uint256",
                  "name": "value_4",
                  "type": "uint256"
                },
                {
                  "internalType": "uint256",
                  "name": "date_1",
                  "type": "uint256"
                },
                {
                  "internalType": "uint256",
                  "name": "date_2",
                  "type": "uint256"
                },
                {
                  "internalType": "uint256",
                  "name": "date_3",
                  "type": "uint256"
                },
                {
                  "internalType": "uint256",
                  "name": "date_4",
                  "type": "uint256"
                },
                {
                  "internalType": "string",
                  "name": "text_1",
                  "type": "string"
                },
                {
                  "internalType": "string",
                  "name": "text_2",
                  "type": "string"
                },
                {
                  "internalType": "string",
                  "name": "text_3",
                  "type": "string"
                },
                {
                  "internalType": "string",
                  "name": "text_4",
                  "type": "string"
                },
                {
                  "internalType": "bool",
                  "name": "bool_1",
                  "type": "bool"
                },
                {
                  "internalType": "bool",
                  "name": "bool_2",
                  "type": "bool"
                },
                {
                  "internalType": "bool",
                  "name": "bool_3",
                  "type": "bool"
                },
                {
                  "internalType": "bool",
                  "name": "bool_4",
                  "type": "bool"
                }
              ],
              "internalType": "struct CommonTypes.TokenExtraDataVC",
              "name": "extra",
              "type": "tuple"
            }
          ],
          "internalType": "struct CommonTypes.TokenData",
          "name": "",
          "type": "tuple"
        }
      ],
      "stateMutability": "view",
      "type": "function"
    },
    {
      "inputs": [
        {
          "internalType": "uint256",
          "name": "_tokenId",
          "type": "uint256"
        }
      ],
      "name": "ocGetTokenById",
      "outputs": [
        {
          "components": [
            {
              "internalType": "uint256",
              "name": "id",
              "type": "uint256"
            },
            {
              "internalType": "address",
              "name": "client",
              "type": "address"
            },
            {
              "internalType": "uint256",
              "name": "tokenType",
              "type": "uint256"
            },
            {
              "internalType": "uint256",
              "name": "expirationDate",
              "type": "uint256"
            },
            {
              "internalType": "uint256",
              "name": "issueDate",
              "type": "uint256"
            },
            {
              "internalType": "address",
              "name": "issuer",
              "type": "address"
            },
            {
              "internalType": "bool",
              "name": "isRectifier",
              "type": "bool"
            },
            {
              "internalType": "string",
              "name": "notes",
              "type": "string"
            },
            {
              "internalType": "bool",
              "name": "tokenResult",
              "type": "bool"
            },
            {
              "internalType": "string",
              "name": "tokenInfo",
              "type": "string"
            },
            {
              "components": [
                {
                  "internalType": "uint256",
                  "name": "value_1",
                  "type": "uint256"
                },
                {
                  "internalType": "uint256",
                  "name": "value_2",
                  "type": "uint256"
                },
                {
                  "internalType": "uint256",
                  "name": "value_3",
                  "type": "uint256"
                },
                {
                  "internalType": "uint256",
                  "name": "value_4",
                  "type": "uint256"
                },
                {
                  "internalType": "uint256",
                  "name": "date_1",
                  "type": "uint256"
                },
                {
                  "internalType": "uint256",
                  "name": "date_2",
                  "type": "uint256"
                },
                {
                  "internalType": "uint256",
                  "name": "date_3",
                  "type": "uint256"
                },
                {
                  "internalType": "uint256",
                  "name": "date_4",
                  "type": "uint256"
                },
                {
                  "internalType": "string",
                  "name": "text_1",
                  "type": "string"
                },
                {
                  "internalType": "string",
                  "name": "text_2",
                  "type": "string"
                },
                {
                  "internalType": "string",
                  "name": "text_3",
                  "type": "string"
                },
                {
                  "internalType": "string",
                  "name": "text_4",
                  "type": "string"
                },
                {
                  "internalType": "bool",
                  "name": "bool_1",
                  "type": "bool"
                },
                {
                  "internalType": "bool",
                  "name": "bool_2",
                  "type": "bool"
                },
                {
                  "internalType": "bool",
                  "name": "bool_3",
                  "type": "bool"
                },
                {
                  "internalType": "bool",
                  "name": "bool_4",
                  "type": "bool"
                }
              ],
              "internalType": "struct CommonTypes.TokenExtraDataVC",
              "name": "extra",
              "type": "tuple"
            }
          ],
          "internalType": "struct CommonTypes.TokenData",
          "name": "",
          "type": "tuple"
        }
      ],
      "stateMutability": "view",
      "type": "function"
    },
    {
      "inputs": [
        {
          "internalType": "bytes32",
          "name": "role",
          "type": "bytes32"
        },
        {
          "internalType": "address",
          "name": "callerConfirmation",
          "type": "address"
        }
      ],
      "name": "renounceRole",
      "outputs": [],
      "stateMutability": "nonpayable",
      "type": "function"
    },
    {
      "inputs": [
        {
          "internalType": "bytes32",
          "name": "role",
          "type": "bytes32"
        },
        {
          "internalType": "address",
          "name": "account",
          "type": "address"
        }
      ],
      "name": "revokeRole",
      "outputs": [],
      "stateMutability": "nonpayable",
      "type": "function"
    },
    {
      "inputs": [
        {
          "internalType": "address",
          "name": "from",
          "type": "address"
        },
        {
          "internalType": "address",
          "name": "to",
          "type": "address"
        },
        {
          "internalType": "uint256[]",
          "name": "ids",
          "type": "uint256[]"
        },
        {
          "internalType": "uint256[]",
          "name": "values",
          "type": "uint256[]"
        },
        {
          "internalType": "bytes",
          "name": "data",
          "type": "bytes"
        }
      ],
      "name": "safeBatchTransferFrom",
      "outputs": [],
      "stateMutability": "nonpayable",
      "type": "function"
    },
    {
      "inputs": [
        {
          "internalType": "address",
          "name": "",
          "type": "address"
        },
        {
          "internalType": "address",
          "name": "",
          "type": "address"
        },
        {
          "internalType": "uint256",
          "name": "",
          "type": "uint256"
        },
        {
          "internalType": "uint256",
          "name": "",
          "type": "uint256"
        },
        {
          "internalType": "bytes",
          "name": "",
          "type": "bytes"
        }
      ],
      "name": "safeTransferFrom",
      "outputs": [],
      "stateMutability": "nonpayable",
      "type": "function"
    },
    {
      "inputs": [
        {
          "internalType": "address",
          "name": "operator",
          "type": "address"
        },
        {
          "internalType": "bool",
          "name": "approved",
          "type": "bool"
        }
      ],
      "name": "setApprovalForAll",
      "outputs": [],
      "stateMutability": "nonpayable",
      "type": "function"
    },
    {
      "inputs": [
        {
          "internalType": "uint256",
          "name": "tokenType",
          "type": "uint256"
        },
        {
          "internalType": "address",
          "name": "module",
          "type": "address"
        }
      ],
      "name": "setComplianceModule",
      "outputs": [],
      "stateMutability": "nonpayable",
      "type": "function"
    },
    {
      "inputs": [
        {
          "internalType": "uint256",
          "name": "tokenType",
          "type": "uint256"
        },
        {
          "internalType": "bool",
          "name": "enabled",
          "type": "bool"
        }
      ],
      "name": "setTypeCallCreatedClient",
      "outputs": [],
      "stateMutability": "nonpayable",
      "type": "function"
    },
    {
      "inputs": [
        {
          "internalType": "uint256",
          "name": "tokenType",
          "type": "uint256"
        },
        {
          "internalType": "bool",
          "name": "enabled",
          "type": "bool"
        }
      ],
      "name": "setTypeCallCreatedIssuer",
      "outputs": [],
      "stateMutability": "nonpayable",
      "type": "function"
    },
    {
      "inputs": [
        {
          "internalType": "uint256",
          "name": "tokenType",
          "type": "uint256"
        },
        {
          "internalType": "bool",
          "name": "enabled",
          "type": "bool"
        }
      ],
      "name": "setTypeCallDestroyedClient",
      "outputs": [],
      "stateMutability": "nonpayable",
      "type": "function"
    },
    {
      "inputs": [
        {
          "internalType": "uint256",
          "name": "tokenType",
          "type": "uint256"
        },
        {
          "internalType": "bool",
          "name": "enabled",
          "type": "bool"
        }
      ],
      "name": "setTypeCallDestroyedIssuer",
      "outputs": [],
      "stateMutability": "nonpayable",
      "type": "function"
    },
    {
      "inputs": [
        {
          "internalType": "uint256",
          "name": "tokenType",
          "type": "uint256"
        },
        {
          "internalType": "bool",
          "name": "enabled",
          "type": "bool"
        }
      ],
      "name": "setTypeCallTransferredClient",
      "outputs": [],
      "stateMutability": "nonpayable",
      "type": "function"
    },
    {
      "inputs": [
        {
          "internalType": "uint256",
          "name": "tokenType",
          "type": "uint256"
        },
        {
          "internalType": "bool",
          "name": "enabled",
          "type": "bool"
        }
      ],
      "name": "setTypeCallTransferredIssuer",
      "outputs": [],
      "stateMutability": "nonpayable",
      "type": "function"
    },
    {
      "inputs": [
        {
          "internalType": "uint256",
          "name": "tokenType",
          "type": "uint256"
        },
        {
          "internalType": "bool",
          "name": "enabled",
          "type": "bool"
        }
      ],
      "name": "setTypeResultOverride",
      "outputs": [],
      "stateMutability": "nonpayable",
      "type": "function"
    },
    {
      "inputs": [
        {
          "internalType": "uint256",
          "name": "tokenType",
          "type": "uint256"
        },
        {
          "internalType": "bool",
          "name": "enabled",
          "type": "bool"
        }
      ],
      "name": "setTypeRevertIfFalse",
      "outputs": [],
      "stateMutability": "nonpayable",
      "type": "function"
    },
    {
      "inputs": [
        {
          "internalType": "bytes4",
          "name": "interfaceId",
          "type": "bytes4"
        }
      ],
      "name": "supportsInterface",
      "outputs": [
        {
          "internalType": "bool",
          "name": "",
          "type": "bool"
        }
      ],
      "stateMutability": "view",
      "type": "function"
    },
    {
      "inputs": [],
      "name": "symbol",
      "outputs": [
        {
          "internalType": "string",
          "name": "",
          "type": "string"
        }
      ],
      "stateMutability": "view",
      "type": "function"
    },
    {
      "inputs": [
        {
          "internalType": "uint256",
          "name": "tokenType",
          "type": "uint256"
        }
      ],
      "name": "unsetComplianceModule",
      "outputs": [],
      "stateMutability": "nonpayable",
      "type": "function"
    },
    {
      "inputs": [
        {
          "internalType": "uint256",
          "name": "",
          "type": "uint256"
        }
      ],
      "name": "uri",
      "outputs": [
        {
          "internalType": "string",
          "name": "",
          "type": "string"
        }
      ],
      "stateMutability": "view",
      "type": "function"
    }
  ],
  "bytecode": "0x60c06040526011608090815270436f6d706c69616e636520546f6b656e7360781b60a05260089061003090826103ed565b5060408051808201909152600381526210d41360ea1b602082015260099061005890826103ed565b5034801561006557600080fd5b50604051615245380380615245833981016040819052610084916104c7565b818184610090816100f0565b50600580546001600160a01b038084166001600160a01b03199283161790925560048054928516929091169190911790556100cc600082610100565b506100d6826101b0565b6100e060006101fd565b50506001600755506105b4915050565b60026100fc82826103ed565b5050565b60008281526003602090815260408083206001600160a01b038516845290915281205460ff166101a65760008381526003602090815260408083206001600160a01b03861684529091529020805460ff1916600117905561015e3390565b6001600160a01b0316826001600160a01b0316847f2f8788117e7eff1d82e926ec794901d17c78024a50270940304540a733656f0d60405160405180910390a45060016101aa565b5060005b92915050565b6040516a4953535545525f524f4c4560a81b60208201526101f090602b01604051602081830303815290604052805190602001208261010060201b60201c565b506101fa816101fd565b50565b6005546001600160a01b031632146102765760405162461bcd60e51b815260206004820152603160248201527f437573746f6d416363657373436f6e74726f6c3a204578636c757369766f207060448201527030b9309030b236b4b734b9ba3930b237b960791b60648201526084015b60405180910390fd5b6001600160a01b03811660009081526006602052604090205460ff16156102f45760405162461bcd60e51b815260206004820152602c60248201527f437573746f6d416363657373436f6e74726f6c3a206163636f756e7420616c7260448201526b1958591e48195b98589b195960a21b606482015260840161026d565b6001600160a01b038116600081815260066020908152604091829020805460ff1916600117905590519182527f89935d4bfbef0b4918d6a3c07a40b49687f7df9fcf6cda771f15a5bf2659f231910160405180910390a150565b634e487b7160e01b600052604160045260246000fd5b600181811c9082168061037857607f821691505b60208210810361039857634e487b7160e01b600052602260045260246000fd5b50919050565b601f8211156103e857806000526020600020601f840160051c810160208510156103c55750805b601f840160051c820191505b818110156103e557600081556001016103d1565b50505b505050565b81516001600160401b038111156104065761040661034e565b61041a816104148454610364565b8461039e565b6020601f82116001811461044e57600083156104365750848201515b600019600385901b1c1916600184901b1784556103e5565b600084815260208120601f198516915b8281101561047e578785015182556020948501946001909201910161045e565b508482101561049c5786840151600019600387901b60f8161c191681555b50505050600190811b01905550565b80516001600160a01b03811681146104c257600080fd5b919050565b6000806000606084860312156104dc57600080fd5b83516001600160401b038111156104f257600080fd5b8401601f8101861361050357600080fd5b80516001600160401b0381111561051c5761051c61034e565b604051601f8201601f19908116603f011681016001600160401b038111828210171561054a5761054a61034e565b60405281815282820160200188101561056257600080fd5b60005b8281101561058157602081850181015183830182015201610565565b5060006020838301015280955050505061059d602085016104ab565b91506105ab604085016104ab565b90509250925092565b614c82806105c36000396000f3fe608060405234801561001057600080fd5b506004361061032a5760003560e01c806397fbdb76116101b2578063d87741c1116100f9578063e8d5a48a116100a2578063f242432a1161007c578063f242432a1461079b578063f9bd3a1e146107ae578063fafada43146107c1578063fd1a1f7a146107d457600080fd5b8063e8d5a48a14610720578063e985e9c51461074c578063eefe69481461078857600080fd5b8063df2c3ec1116100d3578063df2c3ec1146106c7578063df6a37d1146106ea578063e7c5221d146106fd57600080fd5b8063d87741c114610689578063d9df62f2146106ac578063de01c574146106bf57600080fd5b8063b772ce421161015b578063c9a5191c11610135578063c9a5191c14610650578063d547741f14610663578063d7da19011461067657600080fd5b8063b772ce4214610617578063b812c0a11461062a578063c0baf1821461063d57600080fd5b8063a217fddf1161018c578063a217fddf146105d9578063a22cb465146105e1578063a4ba1d9f146105f457600080fd5b806397fbdb76146105905780639b691ddd146105a35780639eefdd87146105c657600080fd5b80633b4c4fae1161027657806371ddfba61161021f57806391193390116101f9578063911933901461052c57806391d148541461054f57806395d89b411461058857600080fd5b806371ddfba6146104e157806382aefa24146105015780638659a68b1461050957600080fd5b8063503642bb11610250578063503642bb14610485578063515243c31461048d57806352dc0250146104a057600080fd5b80633b4c4fae1461043f5780634e1273f4146104525780635036258b1461047257600080fd5b8063248a9ca3116102d85780632f2ff15d116102b25780632f2ff15d1461040657806333543da21461041957806336568abe1461042c57600080fd5b8063248a9ca3146103bd57806329048df5146103e05780632eb2c2d6146103f357600080fd5b806306fdde031161030957806306fdde03146103805780630e89341c14610395578063116877cc146103a857600080fd5b8062fdd58e1461032f57806301ffc9a714610355578063062d3bd714610378575b600080fd5b61034261033d366004614012565b6107f7565b6040519081526020015b60405180910390f35b610368610363366004614052565b61081f565b604051901515815260200161034c565b610342610889565b6103886108cf565b60405161034c91906140bc565b6103886103a33660046140cf565b61095d565b6103bb6103b63660046140e8565b6109f1565b005b6103426103cb3660046140cf565b60009081526003602052604090206001015490565b6103bb6103ee36600461411c565b610a4a565b6103bb6104013660046142c5565b610b1b565b6103bb61041436600461437b565b610bba565b6103bb610427366004614518565b610be5565b6103bb61043a36600461437b565b6114a2565b6103bb61044d36600461411c565b6114f3565b6104656104603660046145ea565b6115b7565b60405161034c91906146ef565b6103bb6104803660046140e8565b611684565b6103426117de565b6103bb61049b36600461411c565b6117fc565b6104c96104ae3660046140cf565b6000908152600a60205260409020546001600160a01b031690565b6040516001600160a01b03909116815260200161034c565b6104f46104ef366004614012565b6118c0565b60405161034c9190614818565b610342611e66565b6103686105173660046140cf565b60106020526000908152604090205460ff1681565b61036861053a3660046140cf565b600f6020526000908152604090205460ff1681565b61036861055d36600461437b565b60009182526003602090815260408084206001600160a01b0393909316845291905290205460ff1690565b610388611e85565b6103bb61059e36600461411c565b611e92565b6103686105b13660046140cf565b60136020526000908152604090205460ff1681565b6103bb6105d43660046140e8565b611f56565b610342600081565b6103bb6105ef366004614901565b6120ad565b6103686106023660046140cf565b60116020526000908152604090205460ff1681565b6103bb61062536600461437b565b6120bc565b6104f4610638366004614012565b612168565b6104f461064b3660046140cf565b61267a565b6103bb61065e36600461411c565b612b60565b6103bb61067136600461437b565b612c24565b6103bb61068436600461411c565b612c49565b6103686106973660046140cf565b60126020526000908152604090205460ff1681565b6103bb6106ba3660046140cf565b612d0d565b610342612d9b565b6103686106d53660046140cf565b60156020526000908152604090205460ff1681565b6103bb6106f8366004614012565b612dbb565b61036861070b3660046140cf565b60146020526000908152604090205460ff1681565b61036861072e3660046140e8565b6001600160a01b031660009081526006602052604090205460ff1690565b61036861075a36600461492d565b6001600160a01b03918216600090815260016020908152604080832093909416825291909152205460ff1690565b6103bb61079636600461411c565b612e7c565b6103bb6107a9366004614957565b612f40565b6104f46107bc366004614012565b612f88565b6103bb6107cf36600461411c565b613553565b6103686107e23660046140cf565b60166020526000908152604090205460ff1681565b6000818152602081815260408083206001600160a01b03861684529091529020545b92915050565b60006001600160e01b03198216636cdb3d1360e11b148061085057506001600160e01b031982166303a24d0760e21b145b8061086b57506001600160e01b03198216637965db0b60e01b145b8061087a575061087a82613617565b80610819575061081982613617565b6040517f434f4d504c49414e43455f524f4c4500000000000000000000000000000000006020820152602f015b6040516020818303038152906040528051906020012081565b600880546108dc906149b0565b80601f0160208091040260200160405190810160405280929190818152602001828054610908906149b0565b80156109555780601f1061092a57610100808354040283529160200191610955565b820191906000526020600020905b81548152906001019060200180831161093857829003601f168201915b505050505081565b60606002805461096c906149b0565b80601f0160208091040260200160405190810160405280929190818152602001828054610998906149b0565b80156109e55780601f106109ba576101008083540402835291602001916109e5565b820191906000526020600020905b8154815290600101906020018083116109c857829003601f168201915b50505050509050919050565b60006109fc8161363c565b600454610a11906001600160a01b0316613649565b610a1a8261368d565b506004805473ffffffffffffffffffffffffffffffffffffffff19166001600160a01b0392909216919091179055565b6005546001600160a01b03163214610ac35760405162461bcd60e51b815260206004820152603160248201527f437573746f6d416363657373436f6e74726f6c3a204578636c757369766f207060448201527030b9309030b236b4b734b9ba3930b237b960791b60648201526084015b60405180910390fd5b600082815260116020908152604091829020805460ff1916841515908117909155915191825283917f3da114c94ecb03c74aa0a7ce35a92413097ff33dfa2f205e6deb2f3bca904fd891015b60405180910390a25050565b336001600160a01b0386168114801590610b5b57506001600160a01b0380871660009081526001602090815260408083209385168352929052205460ff16155b15610ba5576040517fe237d9220000000000000000000000000000000000000000000000000000000081526001600160a01b03808316600483015287166024820152604401610aba565b610bb286868686866136d1565b505050505050565b600082815260036020526040902060010154610bd58161363c565b610bdf8383613752565b50505050565b6040516a4953535545525f524f4c4560a81b6020820152602b0160405160208183030381529060405280519060200120610c1e8161363c565b6007546000908152600b602052604090205415610ca35760405162461bcd60e51b815260206004820152602e60248201527f5b436f6d706c69616e6365546f6b656e52656769737472795d20546f6b656e2060448201527f616c7265616479206578697374730000000000000000000000000000000000006064820152608401610aba565b426000610cb382620151806149fa565b60008a8152600a60205260408120549192506001600160a01b0390911690818015610dee5786516040517fe46638e60000000000000000000000000000000000000000000000000000000081523360048201526001600160a01b038f8116602483015260448201929092529084169063e46638e690606401602060405180830381865afa158015610d48573d6000803e3d6000fd5b505050506040513d601f19601f82011682018060405250810190610d6c9190614a0d565b60008d81526015602052604090205490925060ff1615610dd35781610dd35760405162461bcd60e51b815260206004820152601160248201527f436f6d706c69616e6365206661696c65640000000000000000000000000000006044820152606401610aba565b60008c81526016602052604090205460ff1615610dee57819a505b60405180610160016040528060075481526020018e6001600160a01b031681526020018d8152602001858152602001868152602001336001600160a01b031681526020018b151581526020018a81526020018c1515815260200189815260200188815250600b600060075481526020019081526020016000206000820151816000015560208201518160010160006101000a8154816001600160a01b0302191690836001600160a01b0316021790555060408201518160020155606082015181600301556080820151816004015560a08201518160050160006101000a8154816001600160a01b0302191690836001600160a01b0316021790555060c08201518160050160146101000a81548160ff02191690831515021790555060e0820151816006019081610f1e9190614a71565b5061010082015160078201805460ff19169115159190911790556101208201516008820190610f4d9082614a71565b506101408201518051600983019081556020820151600a8401556040820151600b8401556060820151600c8401556080820151600d84015560a0820151600e84015560c0820151600f84015560e082015160108401556101008201516011840190610fb89082614a71565b506101208201516009820190610fce9082614a71565b50610140820151600a820190610fe49082614a71565b50610160820151600b820190610ffa9082614a71565b50610180820151600c9190910180546101a08401516101c08501516101e09095015161ffff1990921693151561ff00191693909317610100931515939093029290921763ffff00001916620100009315159390930263ff000000191692909217630100000091151591909102179055505060075460408051602081019091526000815261108b918f91600190613800565b8180156110a057506001600160a01b03831615155b156113ab5760008c81526010602052604090205460ff161561112d5786516040516322ebca6d60e21b81526001600160a01b038f81166004830152336024830152604482019290925290821690638baf29b490606401600060405180830381600087803b15801561111057600080fd5b505af1158015611124573d6000803e3d6000fd5b505050506111b1565b60008c8152600f602052604090205460ff16156111b15786516040516322ebca6d60e21b81523360048201526001600160a01b038f81166024830152604482019290925290821690638baf29b490606401600060405180830381600087803b15801561119857600080fd5b505af11580156111ac573d6000803e3d6000fd5b505050505b60008c81526014602052604090205460ff1615611230578651604051635f8dead360e01b815233600482015260248101919091526001600160a01b03821690635f8dead390604401600060405180830381600087803b15801561121357600080fd5b505af1158015611227573d6000803e3d6000fd5b505050506112ae565b60008c81526013602052604090205460ff16156112ae578651604051635f8dead360e01b81526001600160a01b038f81166004830152602482019290925290821690635f8dead390604401600060405180830381600087803b15801561129557600080fd5b505af11580156112a9573d6000803e3d6000fd5b505050505b60008c81526011602052604090205460ff161561132d57865160405163469753b960e11b815233600482015260248101919091526001600160a01b03821690638d2ea77290604401600060405180830381600087803b15801561131057600080fd5b505af1158015611324573d6000803e3d6000fd5b505050506113ab565b60008c81526012602052604090205460ff16156113ab57865160405163469753b960e11b81526001600160a01b038f81166004830152602482019290925290821690638d2ea77290604401600060405180830381600087803b15801561139257600080fd5b505af11580156113a6573d6000803e3d6000fd5b505050505b600754600c60008f6001600160a01b03166001600160a01b0316815260200190815260200160002060008e8152602001908152602001600020819055506001600e6000336001600160a01b03166001600160a01b0316815260200190815260200160002060006007548152602001908152602001600020819055508c6001600160a01b0316336001600160a01b03167f503d071fd1f8d0e7abe7beef2c26cba92769c98c24ca55fb351d8d2193d0ca418e600754604051611476929190918252602082015260400190565b60405180910390a36007805490600061148e83614b30565b919050555050505050505050505050505050565b6001600160a01b03811633146114e4576040517f6697b23200000000000000000000000000000000000000000000000000000000815260040160405180910390fd5b6114ee828261385d565b505050565b6005546001600160a01b031632146115675760405162461bcd60e51b815260206004820152603160248201527f437573746f6d416363657373436f6e74726f6c3a204578636c757369766f207060448201527030b9309030b236b4b734b9ba3930b237b960791b6064820152608401610aba565b600082815260156020908152604091829020805460ff1916841515908117909155915191825283917fa9b67df348062917786a59959670c87ac0e7dda9660920ca1a0d204fc533ced59101610b0f565b606081518351146115e85781518351604051635b05999160e01b815260048101929092526024820152604401610aba565b6000835167ffffffffffffffff8111156116045761160461414c565b60405190808252806020026020018201604052801561162d578160200160208202803683370190505b50905060005b845181101561167c57602080820286010151611657906020808402870101516107f7565b82828151811061166957611669614b49565b6020908102919091010152600101611633565b509392505050565b6005546001600160a01b031632146116f85760405162461bcd60e51b815260206004820152603160248201527f437573746f6d416363657373436f6e74726f6c3a204578636c757369766f207060448201527030b9309030b236b4b734b9ba3930b237b960791b6064820152608401610aba565b6001600160a01b03811660009081526006602052604090205460ff166117865760405162461bcd60e51b815260206004820152602d60248201527f437573746f6d416363657373436f6e74726f6c3a206163636f756e7420616c7260448201527f656164792064697361626c6564000000000000000000000000000000000000006064820152608401610aba565b6001600160a01b038116600081815260066020908152604091829020805460ff1916905590519182527f3890f76dc2dc21d31c10c19921480630342203b698a442bc887194019a98897891015b60405180910390a150565b6040516941554449545f524f4c4560b01b6020820152602a016108b6565b6005546001600160a01b031632146118705760405162461bcd60e51b815260206004820152603160248201527f437573746f6d416363657373436f6e74726f6c3a204578636c757369766f207060448201527030b9309030b236b4b734b9ba3930b237b960791b6064820152608401610aba565b600082815260166020908152604091829020805460ff1916841515908117909155915191825283917f272388ae3a96b6da21a9535aae99e6623d2299d79b04913f86887d2810a106749101610b0f565b6118c8613f01565b6001600160a01b0383166000908152600d6020908152604080832033845282528083208584529091529020544210806119365750336000908152600e602090815260408083206001600160a01b0387168452600c835281842086855283528184205484529091529020546001145b6119a85760405162461bcd60e51b815260206004820152602760248201527f5b436f6d706c69616e6365546f6b656e52656769737472795d2041636365737360448201527f2064656e696564000000000000000000000000000000000000000000000000006064820152608401610aba565b6001600160a01b038381166000908152600c60209081526040808320868452825280832054808452600b8352928190208151610160810183528154815260018201548616938101939093526002810154918301919091526003810154606083015260048101546080830152600581015493841660a0830152600160a01b90930460ff16151560c08201526006830180549293919260e084019190611a4b906149b0565b80601f0160208091040260200160405190810160405280929190818152602001828054611a77906149b0565b8015611ac45780601f10611a9957610100808354040283529160200191611ac4565b820191906000526020600020905b815481529060010190602001808311611aa757829003601f168201915b5050509183525050600782015460ff1615156020820152600882018054604090920191611af0906149b0565b80601f0160208091040260200160405190810160405280929190818152602001828054611b1c906149b0565b8015611b695780601f10611b3e57610100808354040283529160200191611b69565b820191906000526020600020905b815481529060010190602001808311611b4c57829003601f168201915b5050505050815260200160098201604051806102000160405290816000820154815260200160018201548152602001600282015481526020016003820154815260200160048201548152602001600582015481526020016006820154815260200160078201548152602001600882018054611be3906149b0565b80601f0160208091040260200160405190810160405280929190818152602001828054611c0f906149b0565b8015611c5c5780601f10611c3157610100808354040283529160200191611c5c565b820191906000526020600020905b815481529060010190602001808311611c3f57829003601f168201915b50505050508152602001600982018054611c75906149b0565b80601f0160208091040260200160405190810160405280929190818152602001828054611ca1906149b0565b8015611cee5780601f10611cc357610100808354040283529160200191611cee565b820191906000526020600020905b815481529060010190602001808311611cd157829003601f168201915b50505050508152602001600a82018054611d07906149b0565b80601f0160208091040260200160405190810160405280929190818152602001828054611d33906149b0565b8015611d805780601f10611d5557610100808354040283529160200191611d80565b820191906000526020600020905b815481529060010190602001808311611d6357829003601f168201915b50505050508152602001600b82018054611d99906149b0565b80601f0160208091040260200160405190810160405280929190818152602001828054611dc5906149b0565b8015611e125780601f10611de757610100808354040283529160200191611e12565b820191906000526020600020905b815481529060010190602001808311611df557829003601f168201915b5050509183525050600c919091015460ff8082161515602084015261010082048116151560408401526201000082048116151560608401526301000000909104161515608090910152905250949350505050565b6040516a4953535545525f524f4c4560a81b6020820152602b016108b6565b600980546108dc906149b0565b6005546001600160a01b03163214611f065760405162461bcd60e51b815260206004820152603160248201527f437573746f6d416363657373436f6e74726f6c3a204578636c757369766f207060448201527030b9309030b236b4b734b9ba3930b237b960791b6064820152608401610aba565b6000828152600f6020908152604091829020805460ff1916841515908117909155915191825283917f03f64983905acf94065b565c9ec9cc1873489ad9b8ae7b7f0be9e59ce1af284b9101610b0f565b6005546001600160a01b03163214611fca5760405162461bcd60e51b815260206004820152603160248201527f437573746f6d416363657373436f6e74726f6c3a204578636c757369766f207060448201527030b9309030b236b4b734b9ba3930b237b960791b6064820152608401610aba565b6001600160a01b03811660009081526006602052604090205460ff16156120595760405162461bcd60e51b815260206004820152602c60248201527f437573746f6d416363657373436f6e74726f6c3a206163636f756e7420616c7260448201527f6561647920656e61626c656400000000000000000000000000000000000000006064820152608401610aba565b6001600160a01b038116600081815260066020908152604091829020805460ff1916600117905590519182527f89935d4bfbef0b4918d6a3c07a40b49687f7df9fcf6cda771f15a5bf2659f23191016117d3565b6120b83383836138e4565b5050565b6040516b4e45545f41444d5f524f4c4560a01b6020820152602c01604051602081830303815290604052805190602001206120f68161363c565b6000838152600a6020908152604091829020805473ffffffffffffffffffffffffffffffffffffffff19166001600160a01b038616908117909155915191825284917f4451d17cbbe4b0f7599ee84c19290b93a443af493bb7f5009502ad6ee986ad80910160405180910390a2505050565b612170613f01565b6040517f434f4d504c49414e43455f524f4c4500000000000000000000000000000000006020820152602f01604051602081830303815290604052805190602001206121bb8161363c565b6001600160a01b038481166000908152600c60209081526040808320878452825280832054808452600b8352928190208151610160810183528154815260018201548616938101939093526002810154918301919091526003810154606083015260048101546080830152600581015493841660a0830152600160a01b90930460ff16151560c08201526006830180549293919260e08401919061225e906149b0565b80601f016020809104026020016040519081016040528092919081815260200182805461228a906149b0565b80156122d75780601f106122ac576101008083540402835291602001916122d7565b820191906000526020600020905b8154815290600101906020018083116122ba57829003601f168201915b5050509183525050600782015460ff1615156020820152600882018054604090920191612303906149b0565b80601f016020809104026020016040519081016040528092919081815260200182805461232f906149b0565b801561237c5780601f106123515761010080835404028352916020019161237c565b820191906000526020600020905b81548152906001019060200180831161235f57829003601f168201915b50505050508152602001600982016040518061020001604052908160008201548152602001600182015481526020016002820154815260200160038201548152602001600482015481526020016005820154815260200160068201548152602001600782015481526020016008820180546123f6906149b0565b80601f0160208091040260200160405190810160405280929190818152602001828054612422906149b0565b801561246f5780601f106124445761010080835404028352916020019161246f565b820191906000526020600020905b81548152906001019060200180831161245257829003601f168201915b50505050508152602001600982018054612488906149b0565b80601f01602080910402602001604051908101604052809291908181526020018280546124b4906149b0565b80156125015780601f106124d657610100808354040283529160200191612501565b820191906000526020600020905b8154815290600101906020018083116124e457829003601f168201915b50505050508152602001600a8201805461251a906149b0565b80601f0160208091040260200160405190810160405280929190818152602001828054612546906149b0565b80156125935780601f1061256857610100808354040283529160200191612593565b820191906000526020600020905b81548152906001019060200180831161257657829003601f168201915b50505050508152602001600b820180546125ac906149b0565b80601f01602080910402602001604051908101604052809291908181526020018280546125d8906149b0565b80156126255780601f106125fa57610100808354040283529160200191612625565b820191906000526020600020905b81548152906001019060200180831161260857829003601f168201915b5050509183525050600c919091015460ff808216151560208401526101008204811615156040840152620100008204811615156060840152630100000090910416151560809091015290525095945050505050565b612682613f01565b6040516941554449545f524f4c4560b01b6020820152602a01604051602081830303815290604052805190602001206126ba8161363c565b6000838152600b60209081526040918290208251610160810184528154815260018201546001600160a01b03908116938201939093526002820154938101939093526003810154606084015260048101546080840152600581015491821660a0840152600160a01b90910460ff16151560c083015260068101805460e084019190612744906149b0565b80601f0160208091040260200160405190810160405280929190818152602001828054612770906149b0565b80156127bd5780601f10612792576101008083540402835291602001916127bd565b820191906000526020600020905b8154815290600101906020018083116127a057829003601f168201915b5050509183525050600782015460ff16151560208201526008820180546040909201916127e9906149b0565b80601f0160208091040260200160405190810160405280929190818152602001828054612815906149b0565b80156128625780601f1061283757610100808354040283529160200191612862565b820191906000526020600020905b81548152906001019060200180831161284557829003601f168201915b50505050508152602001600982016040518061020001604052908160008201548152602001600182015481526020016002820154815260200160038201548152602001600482015481526020016005820154815260200160068201548152602001600782015481526020016008820180546128dc906149b0565b80601f0160208091040260200160405190810160405280929190818152602001828054612908906149b0565b80156129555780601f1061292a57610100808354040283529160200191612955565b820191906000526020600020905b81548152906001019060200180831161293857829003601f168201915b5050505050815260200160098201805461296e906149b0565b80601f016020809104026020016040519081016040528092919081815260200182805461299a906149b0565b80156129e75780601f106129bc576101008083540402835291602001916129e7565b820191906000526020600020905b8154815290600101906020018083116129ca57829003601f168201915b50505050508152602001600a82018054612a00906149b0565b80601f0160208091040260200160405190810160405280929190818152602001828054612a2c906149b0565b8015612a795780601f10612a4e57610100808354040283529160200191612a79565b820191906000526020600020905b815481529060010190602001808311612a5c57829003601f168201915b50505050508152602001600b82018054612a92906149b0565b80601f0160208091040260200160405190810160405280929190818152602001828054612abe906149b0565b8015612b0b5780601f10612ae057610100808354040283529160200191612b0b565b820191906000526020600020905b815481529060010190602001808311612aee57829003601f168201915b5050509183525050600c919091015460ff808216151560208401526101008204811615156040840152620100008204811615156060840152630100000090910416151560809091015290525091505b50919050565b6005546001600160a01b03163214612bd45760405162461bcd60e51b815260206004820152603160248201527f437573746f6d416363657373436f6e74726f6c3a204578636c757369766f207060448201527030b9309030b236b4b734b9ba3930b237b960791b6064820152608401610aba565b600082815260136020908152604091829020805460ff1916841515908117909155915191825283917f8686f6eb9822d9289dd59043ef3a8593e6b24fd6ad130aff92edd567aa75adf09101610b0f565b600082815260036020526040902060010154612c3f8161363c565b610bdf838361385d565b6005546001600160a01b03163214612cbd5760405162461bcd60e51b815260206004820152603160248201527f437573746f6d416363657373436f6e74726f6c3a204578636c757369766f207060448201527030b9309030b236b4b734b9ba3930b237b960791b6064820152608401610aba565b600082815260106020908152604091829020805460ff1916841515908117909155915191825283917f5fd42b292e1e3078f649f234629daf9aab291c51f9a4d3421a0c0f35a42c01cf9101610b0f565b6040516b4e45545f41444d5f524f4c4560a01b6020820152602c0160405160208183030381529060405280519060200120612d478161363c565b6000828152600a6020526040808220805473ffffffffffffffffffffffffffffffffffffffff191690555183917f8a0c270749a603faaf5c03f597ec9aa49e700c61105b0267f45b57d4e304e70691a25050565b6040516b4e45545f41444d5f524f4c4560a01b6020820152602c016108b6565b6000612dca42620151806149fa565b336000818152600d602090815260408083206001600160a01b0389168085529083528184208885528352818420869055938352600c8252808320878452825280832054938352600e82528083208484529091528120805493945091929190612e3183614b30565b90915550506040518381526001600160a01b0385169033907fb7bb895856cfe81bb642b1823f6b61330cfd3eab67545c537b8df8a04141ad269060200160405180910390a350505050565b6005546001600160a01b03163214612ef05760405162461bcd60e51b815260206004820152603160248201527f437573746f6d416363657373436f6e74726f6c3a204578636c757369766f207060448201527030b9309030b236b4b734b9ba3930b237b960791b6064820152608401610aba565b600082815260126020908152604091829020805460ff1916841515908117909155915191825283917f13f93f2f400ecc5895fba05db94661d534cf715f17fadad0e251d9e0dbf87e229101610b0f565b60405162461bcd60e51b815260206004820152601060248201527f4e6f6e2d7472616e7366657261626c65000000000000000000000000000000006044820152606401610aba565b612f90613f01565b336000908152600e6020908152604080832085845290915290205461301d5760405162461bcd60e51b815260206004820152602960248201527f5b436f6d706c69616e6365546f6b656e52656769737472795d2041636365737360448201527f2064656e6965642e2e00000000000000000000000000000000000000000000006064820152608401610aba565b6000828152600b60205260409020600101546001600160a01b038481169116146130af5760405162461bcd60e51b815260206004820152602a60248201527f5b436f6d706c69616e6365546f6b656e52656769737472795d2041636365737360448201527f2064656e6965642e2e2e000000000000000000000000000000000000000000006064820152608401610aba565b6000828152600b60209081526040918290208251610160810184528154815260018201546001600160a01b03908116938201939093526002820154938101939093526003810154606084015260048101546080840152600581015491821660a0840152600160a01b90910460ff16151560c083015260068101805460e084019190613139906149b0565b80601f0160208091040260200160405190810160405280929190818152602001828054613165906149b0565b80156131b25780601f10613187576101008083540402835291602001916131b2565b820191906000526020600020905b81548152906001019060200180831161319557829003601f168201915b5050509183525050600782015460ff16151560208201526008820180546040909201916131de906149b0565b80601f016020809104026020016040519081016040528092919081815260200182805461320a906149b0565b80156132575780601f1061322c57610100808354040283529160200191613257565b820191906000526020600020905b81548152906001019060200180831161323a57829003601f168201915b50505050508152602001600982016040518061020001604052908160008201548152602001600182015481526020016002820154815260200160038201548152602001600482015481526020016005820154815260200160068201548152602001600782015481526020016008820180546132d1906149b0565b80601f01602080910402602001604051908101604052809291908181526020018280546132fd906149b0565b801561334a5780601f1061331f5761010080835404028352916020019161334a565b820191906000526020600020905b81548152906001019060200180831161332d57829003601f168201915b50505050508152602001600982018054613363906149b0565b80601f016020809104026020016040519081016040528092919081815260200182805461338f906149b0565b80156133dc5780601f106133b1576101008083540402835291602001916133dc565b820191906000526020600020905b8154815290600101906020018083116133bf57829003601f168201915b50505050508152602001600a820180546133f5906149b0565b80601f0160208091040260200160405190810160405280929190818152602001828054613421906149b0565b801561346e5780601f106134435761010080835404028352916020019161346e565b820191906000526020600020905b81548152906001019060200180831161345157829003601f168201915b50505050508152602001600b82018054613487906149b0565b80601f01602080910402602001604051908101604052809291908181526020018280546134b3906149b0565b80156135005780601f106134d557610100808354040283529160200191613500565b820191906000526020600020905b8154815290600101906020018083116134e357829003601f168201915b5050509183525050600c919091015460ff80821615156020840152610100820481161515604084015262010000820481161515606084015263010000009091041615156080909101529052509392505050565b6005546001600160a01b031632146135c75760405162461bcd60e51b815260206004820152603160248201527f437573746f6d416363657373436f6e74726f6c3a204578636c757369766f207060448201527030b9309030b236b4b734b9ba3930b237b960791b6064820152608401610aba565b600082815260146020908152604091829020805460ff1916841515908117909155915191825283917f081c0cd9cd0c3e72220687878a22a578b83a9d49ff355381d88b9b23129bc03b9101610b0f565b60006001600160e01b03198216637965db0b60e01b1480610819575061081982613994565b61364681336139fd565b50565b6040516a4953535545525f524f4c4560a81b602082015261368390602b01604051602081830303815290604052805190602001208261385d565b5061364681611684565b6040516a4953535545525f524f4c4560a81b60208201526136c790602b016040516020818303038152906040528051906020012082613752565b5061364681611f56565b6001600160a01b0384166136fb57604051632bfa23e760e11b815260006004820152602401610aba565b6001600160a01b03851661373e576040517f01a8351400000000000000000000000000000000000000000000000000000000815260006004820152602401610aba565b61374b8585858585613a6b565b5050505050565b60008281526003602090815260408083206001600160a01b038516845290915281205460ff166137f85760008381526003602090815260408083206001600160a01b03861684529091529020805460ff191660011790556137b03390565b6001600160a01b0316826001600160a01b0316847f2f8788117e7eff1d82e926ec794901d17c78024a50270940304540a733656f0d60405160405180910390a4506001610819565b506000610819565b6001600160a01b03841661382a57604051632bfa23e760e11b815260006004820152602401610aba565b60408051600180825260208201869052818301908152606082018590526080820190925290610bb2600087848487613a6b565b60008281526003602090815260408083206001600160a01b038516845290915281205460ff16156137f85760008381526003602090815260408083206001600160a01b0386168085529252808320805460ff1916905551339286917ff6391f5c32d9c69d2a47ea670b442974b53935d1edc7fd64eb21e047a839171b9190a4506001610819565b6001600160a01b038216613927576040517fced3e10000000000000000000000000000000000000000000000000000000000815260006004820152602401610aba565b6001600160a01b03838116600081815260016020908152604080832094871680845294825291829020805460ff191686151590811790915591519182527f17307eab39ab6107e8899845ad3d59bd9653f200f220920489ca2b5937696c31910160405180910390a3505050565b60006001600160e01b03198216636cdb3d1360e11b14806139c557506001600160e01b031982166303a24d0760e21b145b8061081957507f01ffc9a7000000000000000000000000000000000000000000000000000000006001600160e01b0319831614610819565b60008281526003602090815260408083206001600160a01b038516845290915290205460ff166120b8576040517fe2517d3f0000000000000000000000000000000000000000000000000000000081526001600160a01b038216600482015260248101839052604401610aba565b613a7785858585613abe565b6001600160a01b0384161561374b5782513390600103613ab05760208481015190840151613aa9838989858589613ceb565b5050610bb2565b610bb2818787878787613e18565b8051825114613aed5781518151604051635b05999160e01b815260048101929092526024820152604401610aba565b3360005b8351811015613c0c576020818102858101820151908501909101516001600160a01b03881615613bbd576000828152602081815260408083206001600160a01b038c16845290915290205481811015613b96576040517f03dee4c50000000000000000000000000000000000000000000000000000000081526001600160a01b038a166004820152602481018290526044810183905260648101849052608401610aba565b6000838152602081815260408083206001600160a01b038d16845290915290209082900390555b6001600160a01b03871615613c02576000828152602081815260408083206001600160a01b038b16845290915281208054839290613bfc9084906149fa565b90915550505b5050600101613af1565b508251600103613c8d5760208301516000906020840151909150856001600160a01b0316876001600160a01b0316846001600160a01b03167fc3d58168c5ae7397731d063d5bbf3d657854427343f4c083240f7aacaa2d0f628585604051613c7e929190918252602082015260400190565b60405180910390a4505061374b565b836001600160a01b0316856001600160a01b0316826001600160a01b03167f4a39dc06d4c0dbc64b70af90fd698a233a518aa5d07e595d983b8c0526c8f7fb8686604051613cdc929190614b5f565b60405180910390a45050505050565b6001600160a01b0384163b15610bb25760405163f23a6e6160e01b81526001600160a01b0385169063f23a6e6190613d2f9089908990889088908890600401614b84565b6020604051808303816000875af1925050508015613d6a575060408051601f3d908101601f19168201909252613d6791810190614bcc565b60015b613dd3573d808015613d98576040519150601f19603f3d011682016040523d82523d6000602084013e613d9d565b606091505b508051600003613dcb57604051632bfa23e760e11b81526001600160a01b0386166004820152602401610aba565b805160208201fd5b6001600160e01b0319811663f23a6e6160e01b14613e0f57604051632bfa23e760e11b81526001600160a01b0386166004820152602401610aba565b50505050505050565b6001600160a01b0384163b15610bb25760405163bc197c8160e01b81526001600160a01b0385169063bc197c8190613e5c9089908990889088908890600401614be9565b6020604051808303816000875af1925050508015613e97575060408051601f3d908101601f19168201909252613e9491810190614bcc565b60015b613ec5573d808015613d98576040519150601f19603f3d011682016040523d82523d6000602084013e613d9d565b6001600160e01b0319811663bc197c8160e01b14613e0f57604051632bfa23e760e11b81526001600160a01b0386166004820152602401610aba565b6040518061016001604052806000815260200160006001600160a01b0316815260200160008152602001600081526020016000815260200160006001600160a01b031681526020016000151581526020016060815260200160001515815260200160608152602001613ff16040518061020001604052806000815260200160008152602001600081526020016000815260200160008152602001600081526020016000815260200160008152602001606081526020016060815260200160608152602001606081526020016000151581526020016000151581526020016000151581526020016000151581525090565b905290565b80356001600160a01b038116811461400d57600080fd5b919050565b6000806040838503121561402557600080fd5b61402e83613ff6565b946020939093013593505050565b6001600160e01b03198116811461364657600080fd5b60006020828403121561406457600080fd5b813561406f8161403c565b9392505050565b6000815180845260005b8181101561409c57602081850181015186830182015201614080565b506000602082860101526020601f19601f83011685010191505092915050565b60208152600061406f6020830184614076565b6000602082840312156140e157600080fd5b5035919050565b6000602082840312156140fa57600080fd5b61406f82613ff6565b801515811461364657600080fd5b803561400d81614103565b6000806040838503121561412f57600080fd5b82359150602083013561414181614103565b809150509250929050565b634e487b7160e01b600052604160045260246000fd5b604051610200810167ffffffffffffffff811182821017156141865761418661414c565b60405290565b604051601f8201601f1916810167ffffffffffffffff811182821017156141b5576141b561414c565b604052919050565b600067ffffffffffffffff8211156141d7576141d761414c565b5060051b60200190565b600082601f8301126141f257600080fd5b8135614205614200826141bd565b61418c565b8082825260208201915060208360051b86010192508583111561422757600080fd5b602085015b8381101561424457803583526020928301920161422c565b5095945050505050565b600082601f83011261425f57600080fd5b81356020830160008067ffffffffffffffff8411156142805761428061414c565b50601f8301601f19166020016142958161418c565b9150508281528583830111156142aa57600080fd5b82826020830137600092810160200192909252509392505050565b600080600080600060a086880312156142dd57600080fd5b6142e686613ff6565b94506142f460208701613ff6565b9350604086013567ffffffffffffffff81111561431057600080fd5b61431c888289016141e1565b935050606086013567ffffffffffffffff81111561433957600080fd5b614345888289016141e1565b925050608086013567ffffffffffffffff81111561436257600080fd5b61436e8882890161424e565b9150509295509295909350565b6000806040838503121561438e57600080fd5b8235915061439e60208401613ff6565b90509250929050565b600061020082840312156143ba57600080fd5b6143c2614162565b823581526020808401359082015260408084013590820152606080840135908201526080808401359082015260a0808401359082015260c0808401359082015260e08084013590820152905061010082013567ffffffffffffffff81111561442957600080fd5b6144358482850161424e565b6101008301525061012082013567ffffffffffffffff81111561445757600080fd5b6144638482850161424e565b6101208301525061014082013567ffffffffffffffff81111561448557600080fd5b6144918482850161424e565b6101408301525061016082013567ffffffffffffffff8111156144b357600080fd5b6144bf8482850161424e565b610160830152506144d36101808301614111565b6101808201526144e66101a08301614111565b6101a08201526144f96101c08301614111565b6101c082015261450c6101e08301614111565b6101e082015292915050565b600080600080600080600060e0888a03121561453357600080fd5b61453c88613ff6565b965060208801359550604088013561455381614103565b945061456160608901614111565b9350608088013567ffffffffffffffff81111561457d57600080fd5b6145898a828b0161424e565b93505060a088013567ffffffffffffffff8111156145a657600080fd5b6145b28a828b0161424e565b92505060c088013567ffffffffffffffff8111156145cf57600080fd5b6145db8a828b016143a7565b91505092959891949750929550565b600080604083850312156145fd57600080fd5b823567ffffffffffffffff81111561461457600080fd5b8301601f8101851361462557600080fd5b8035614633614200826141bd565b8082825260208201915060208360051b85010192508783111561465557600080fd5b6020840193505b8284101561467e5761466d84613ff6565b82526020938401939091019061465c565b9450505050602083013567ffffffffffffffff81111561469d57600080fd5b6146a9858286016141e1565b9150509250929050565b600081518084526020840193506020830160005b828110156146e55781518652602095860195909101906001016146c7565b5093949350505050565b60208152600061406f60208301846146b3565b805182526020810151602083015260408101516040830152606081015160608301526080810151608083015260a081015160a083015260c081015160c083015260e081015160e0830152600061010082015161020061010085015261476b610200850182614076565b90506101208301518482036101208601526147868282614076565b9150506101408301518482036101408601526147a28282614076565b9150506101608301518482036101608601526147be8282614076565b9150506101808301516147d661018086018215159052565b506101a08301516147ec6101a086018215159052565b506101c08301516148026101c086018215159052565b506101e083015161167c6101e086018215159052565b60208152815160208201526000602083015161483f60408401826001600160a01b03169052565b506040830151606083015260608301516080830152608083015160a083015260a083015161487860c08401826001600160a01b03169052565b5060c083015180151560e08401525060e08301516101606101008401526148a3610180840182614076565b90506101008401516148ba61012085018215159052565b50610120840151838203601f19016101408501526148d88282614076565b915050610140840151601f19848303016101608501526148f88282614702565b95945050505050565b6000806040838503121561491457600080fd5b61491d83613ff6565b9150602083013561414181614103565b6000806040838503121561494057600080fd5b61494983613ff6565b915061439e60208401613ff6565b600080600080600060a0868803121561496f57600080fd5b61497886613ff6565b945061498660208701613ff6565b93506040860135925060608601359150608086013567ffffffffffffffff81111561436257600080fd5b600181811c908216806149c457607f821691505b602082108103612b5a57634e487b7160e01b600052602260045260246000fd5b634e487b7160e01b600052601160045260246000fd5b80820180821115610819576108196149e4565b600060208284031215614a1f57600080fd5b815161406f81614103565b601f8211156114ee57806000526020600020601f840160051c81016020851015614a515750805b601f840160051c820191505b8181101561374b5760008155600101614a5d565b815167ffffffffffffffff811115614a8b57614a8b61414c565b614a9f81614a9984546149b0565b84614a2a565b6020601f821160018114614ad35760008315614abb5750848201515b600019600385901b1c1916600184901b17845561374b565b600084815260208120601f198516915b82811015614b035787850151825560209485019460019092019101614ae3565b5084821015614b215786840151600019600387901b60f8161c191681555b50505050600190811b01905550565b600060018201614b4257614b426149e4565b5060010190565b634e487b7160e01b600052603260045260246000fd5b604081526000614b7260408301856146b3565b82810360208401526148f881856146b3565b6001600160a01b03861681526001600160a01b038516602082015283604082015282606082015260a060808201526000614bc160a0830184614076565b979650505050505050565b600060208284031215614bde57600080fd5b815161406f8161403c565b6001600160a01b03861681526001600160a01b038516602082015260a060408201526000614c1a60a08301866146b3565b8281036060840152614c2c81866146b3565b90508281036080840152614c408185614076565b9897505050505050505056fea2646970667358221220e30fe4ad968174b1a97e688e01f52cb30e3bddb3f1cd14894f2cb6bc95acc58e64736f6c634300081c0033",
  "linkReferences": {},
  "deployedLinkReferences": {}
}