{
  "_format": "hh-sol-artifact-1",
  "contractName": "AccountFactory",
  "sourceName": "contracts/AccountFactory.sol",
  "abi": [
    {
      "inputs": [
        {
          "internalType": "contract IEntryPoint",
          "name": "_entryPoint",
          "type": "address"
        }
      ],
      "stateMutability": "nonpayable",
      "type": "constructor"
    },
    {
      "inputs": [],
      "name": "Create2EmptyBytecode",
      "type": "error"
    },
    {
      "inputs": [],
      "name": "FailedDeployment",
      "type": "error"
    },
    {
      "inputs": [
        {
          "internalType": "uint256",
          "name": "balance",
          "type": "uint256"
        },
        {
          "internalType": "uint256",
          "name": "needed",
          "type": "uint256"
        }
      ],
      "name": "InsufficientBalance",
      "type": "error"
    },
    {
      "anonymous": false,
      "inputs": [
        {
          "indexed": true,
          "internalType": "address",
          "name": "owner",
          "type": "address"
        },
        {
          "indexed": false,
          "internalType": "bytes32",
          "name": "client",
          "type": "bytes32"
        },
        {
          "indexed": false,
          "internalType": "address",
          "name": "account",
          "type": "address"
        }
      ],
      "name": "AccountCreated",
      "type": "event"
    },
    {
      "inputs": [
        {
          "internalType": "address",
          "name": "owner",
          "type": "address"
        },
        {
          "internalType": "bytes32",
          "name": "hashClient",
          "type": "bytes32"
        },
        {
          "internalType": "uint256",
          "name": "salt",
          "type": "uint256"
        }
      ],
      "name": "createAccount",
      "outputs": [
        {
          "internalType": "address",
          "name": "account",
          "type": "address"
        }
      ],
      "stateMutability": "nonpayable",
      "type": "function"
    },
    {
      "inputs": [],
      "name": "entryPoint",
      "outputs": [
        {
          "internalType": "contract IEntryPoint",
          "name": "",
          "type": "address"
        }
      ],
      "stateMutability": "view",
      "type": "function"
    },
    {
      "inputs": [
        {
          "internalType": "bytes32",
          "name": "",
          "type": "bytes32"
        }
      ],
      "name": "getAccount",
      "outputs": [
        {
          "internalType": "address",
          "name": "",
          "type": "address"
        }
      ],
      "stateMutability": "view",
      "type": "function"
    }
  ],
  "bytecode": "0x60a0604052348015600f57600080fd5b50604051612237380380612237833981016040819052602c91603c565b6001600160a01b0316608052606a565b600060208284031215604d57600080fd5b81516001600160a01b0381168114606357600080fd5b9392505050565b6080516121ac61008b60003960008181604b015261014301526121ac6000f3fe608060405234801561001057600080fd5b50600436106100415760003560e01c8063b0d691fe14610046578063d1de501114610089578063fe922abf146100b2575b600080fd5b61006d7f000000000000000000000000000000000000000000000000000000000000000081565b6040516001600160a01b03909116815260200160405180910390f35b61006d610097366004610328565b6000602081905290815260409020546001600160a01b031681565b61006d6100c0366004610341565b6040516bffffffffffffffffffffffff19606085901b1660208201526034810183905260548101829052600090819060740160405160208183030381529060405280519060200120905060006040518060200161011c9061031b565b601f1982820381018352601f9091011660408181526001600160a01b0389811660208401527f0000000000000000000000000000000000000000000000000000000000000000169082015260600160408051601f198184030181529082905261018892916020016103b2565b60405160208183030381529060405290506101a56000838361022e565b6000868152602081815260409182902080547fffffffffffffffffffffffff0000000000000000000000000000000000000000166001600160a01b0385811691821790925583518a815292830152929550918816917ff5493120d2d01cb5b6c36e95466192409ff774fd8dab4f1c653dde8072078244910160405180910390a250509392505050565b600083471015610277576040517fcf4791810000000000000000000000000000000000000000000000000000000081524760048201526024810185905260440160405180910390fd5b81516000036102b2576040517f4ca249dc00000000000000000000000000000000000000000000000000000000815260040160405180910390fd5b8282516020840186f590503d1519811516156102d4576040513d6000823e3d81fd5b6001600160a01b038116610314576040517fb06ebf3d00000000000000000000000000000000000000000000000000000000815260040160405180910390fd5b9392505050565b611da7806103d083390190565b60006020828403121561033a57600080fd5b5035919050565b60008060006060848603121561035657600080fd5b83356001600160a01b038116811461036d57600080fd5b95602085013595506040909401359392505050565b6000815160005b818110156103a35760208185018101518683015201610389565b50600093019283525090919050565b60006103c76103c18386610382565b84610382565b94935050505056fe60a060405234801561001057600080fd5b50604051611da7380380611da783398101604081905261002f916100a0565b6001600081815581546001600160a01b0319166001600160a01b038581169182179093559183166080526040517fb532073b38c83145e3e5135377a08bf9aab55bc0fd7c1179cd4fb995d2a5159c908290a350506100da565b6001600160a01b038116811461009d57600080fd5b50565b600080604083850312156100b357600080fd5b82516100be81610088565b60208401519092506100cf81610088565b809150509250929050565b608051611c9d61010a600039600081816102120152818161064d0152818161091b0152610b200152611c9d6000f3fe6080604052600436106100f75760003560e01c8063b71091541161008a578063d087d28811610059578063d087d28814610330578063e5c65f7e14610345578063e681cda414610365578063f23a6e611461038557600080fd5b8063b710915414610261578063bc197c811461028e578063c3732901146102d0578063c98f5dc71461030057600080fd5b80638da5cb5b116100c65780638da5cb5b146101a85780639f4f73f9146101e0578063b0d691fe14610200578063b61d27f61461023457600080fd5b80630145deeb1461010357806313af403514610138578063172b3a691461015a57806319822f7c1461017a57600080fd5b366100fe57005b600080fd5b34801561010f57600080fd5b5061012361011e3660046110a4565b6103cb565b60405190151581526020015b60405180910390f35b34801561014457600080fd5b506101586101533660046110e8565b610463565b005b34801561016657600080fd5b50610158610175366004611151565b610587565b34801561018657600080fd5b5061019a6101953660046111b6565b610640565b60405190815260200161012f565b3480156101b457600080fd5b506001546101c8906001600160a01b031681565b6040516001600160a01b03909116815260200161012f565b3480156101ec57600080fd5b506101586101fb3660046110a4565b610883565b34801561020c57600080fd5b506101c87f000000000000000000000000000000000000000000000000000000000000000081565b34801561024057600080fd5b5061025461024f36600461124c565b61090e565b60405161012f91906112ec565b34801561026d57600080fd5b5061028161027c3660046112ff565b610a4a565b60405161012f919061145e565b34801561029a57600080fd5b506102b76102a9366004611547565b600098975050505050505050565b6040516001600160e01b0319909116815260200161012f565b3480156102dc57600080fd5b506101236102eb366004611612565b60009081526003602052604090205460ff1690565b34801561030c57600080fd5b5061012361031b366004611612565b60036020526000908152604090205460ff1681565b34801561033c57600080fd5b5061019a610ae8565b34801561035157600080fd5b50610158610360366004611612565b610b98565b34801561037157600080fd5b5061015861038036600461124c565b610c0d565b34801561039157600080fd5b506102b76103a036600461162b565b7ff23a6e612e1ff4830e658fe43f4e3cb4a5f8170bd5d9e69fb5d7a7fa9e4fdf979695505050505050565b60025460009081036104245760405162461bcd60e51b815260206004820152601460248201527f6461646f73206e616f20696e666f726d61646f7300000000000000000000000060448201526064015b60405180910390fd5b604080516020810186905290810184905260608101839052608001604051602081830303815290604052805190602001206002541490505b9392505050565b6001546001600160a01b031633146104bd5760405162461bcd60e51b815260206004820152600960248201527f4e6f74204f776e65720000000000000000000000000000000000000000000000604482015260640161041b565b6001600160a01b0381166105135760405162461bcd60e51b815260206004820152600a60248201527f5a65726f206f776e657200000000000000000000000000000000000000000000604482015260640161041b565b6001546040516001600160a01b038084169216907fb532073b38c83145e3e5135377a08bf9aab55bc0fd7c1179cd4fb995d2a5159c90600090a3600180547fffffffffffffffffffffffff0000000000000000000000000000000000000000166001600160a01b0392909216919091179055565b61058f610d1e565b60005b8181101561062f57846001600160a01b031663df6a37d1858585858181106105bc576105bc6116a7565b6040516001600160e01b031960e087901b1681526001600160a01b0390941660048501526020029190910135602483015250604401600060405180830381600087803b15801561060b57600080fd5b505af115801561061f573d6000803e3d6000fd5b5050600190920191506105929050565b5061063a6001600055565b50505050565b6000336001600160a01b037f000000000000000000000000000000000000000000000000000000000000000016146106ba5760405162461bcd60e51b815260206004820152600e60248201527f4e6f7420456e747279506f696e74000000000000000000000000000000000000604482015260640161041b565b6040517f19457468657265756d205369676e6564204d6573736167653a0a3332000000006020820152603c8101849052600090605c0160408051601f1981840301815291905280516020909101209050600061075a61071d6101008801886116bd565b8080601f0160208091040260200160405190810160405280939291908181526020018383808284376000920191909152508693925050610d619050565b6001549091506001600160a01b0380831691161461077d5760019250505061045c565b600461078c60608801886116bd565b9050106108775760006107a260608801886116bd565b6107b191600491600091611704565b6107ba9161172e565b90507f49e2d80a000000000000000000000000000000000000000000000000000000006001600160e01b03198216016108755760006107fc60608901896116bd565b61080a916004908290611704565b8101906108179190611821565b50915050678ac7230489e800008111156108735760405162461bcd60e51b815260206004820152601360248201527f45786365656473206d617820616c6c6f77656400000000000000000000000000604482015260640161041b565b505b505b50600095945050505050565b600254156108d35760405162461bcd60e51b815260206004820152601360248201527f6461646f73206a6120696e666f726d61646f7300000000000000000000000000604482015260640161041b565b60408051602081018590529081018390526060810182905260800160408051601f198184030181529190528051602090910120600255505050565b6060336001600160a01b037f000000000000000000000000000000000000000000000000000000000000000016146109885760405162461bcd60e51b815260206004820152600e60248201527f4e6f7420456e747279506f696e74000000000000000000000000000000000000604482015260640161041b565b600080866001600160a01b03168686866040516109a69291906118bd565b60006040518083038185875af1925050503d80600081146109e3576040519150601f19603f3d011682016040523d82523d6000602084013e6109e8565b606091505b5091509150866001600160a01b0316336001600160a01b03167fe64e18831a843eaf4c08489c0e054bca696819a05aa6ed566da178ba4f445c128489898987604051610a389594939291906118cd565b60405180910390a39695505050505050565b610a52610faf565b6040517f71ddfba60000000000000000000000000000000000000000000000000000000081526001600160a01b038481166004830152602482018490528516906371ddfba690604401600060405180830381865afa158015610ab8573d6000803e3d6000fd5b505050506040513d6000823e601f3d908101601f19168201604052610ae09190810190611afc565b949350505050565b6040517f35567e1a000000000000000000000000000000000000000000000000000000008152306004820152600060248201819052907f00000000000000000000000000000000000000000000000000000000000000006001600160a01b0316906335567e1a90604401602060405180830381865afa158015610b6f573d6000803e3d6000fd5b505050506040513d601f19601f82011682018060405250810190610b939190611c38565b905090565b6001546001600160a01b03163314610bf25760405162461bcd60e51b815260206004820152601260248201527f4f6e6c79206f776e65722063616e206164640000000000000000000000000000604482015260640161041b565b6000908152600360205260409020805460ff19166001179055565b6001546001600160a01b03163314610c675760405162461bcd60e51b815260206004820152600e60248201527f4e6f7420617574686f72697a6564000000000000000000000000000000000000604482015260640161041b565b6000846001600160a01b0316848484604051610c849291906118bd565b60006040518083038185875af1925050503d8060008114610cc1576040519150601f19603f3d011682016040523d82523d6000602084013e610cc6565b606091505b5050905080610d175760405162461bcd60e51b815260206004820152600b60248201527f43616c6c206661696c6564000000000000000000000000000000000000000000604482015260640161041b565b5050505050565b600260005403610d5a576040517f3ee5aeb500000000000000000000000000000000000000000000000000000000815260040160405180910390fd5b6002600055565b600080600080610d718686610d8b565b925092509250610d818282610dd8565b5090949350505050565b60008060008351604103610dc55760208401516040850151606086015160001a610db788828585610ee0565b955095509550505050610dd1565b50508151600091506002905b9250925092565b6000826003811115610dec57610dec611c51565b03610df5575050565b6001826003811115610e0957610e09611c51565b03610e40576040517ff645eedf00000000000000000000000000000000000000000000000000000000815260040160405180910390fd5b6002826003811115610e5457610e54611c51565b03610e8e576040517ffce698f70000000000000000000000000000000000000000000000000000000081526004810182905260240161041b565b6003826003811115610ea257610ea2611c51565b03610edc576040517fd78bce0c0000000000000000000000000000000000000000000000000000000081526004810182905260240161041b565b5050565b600080807f7fffffffffffffffffffffffffffffff5d576e7357a4501ddfe92f46681b20a0841115610f1b5750600091506003905082610fa5565b604080516000808252602082018084528a905260ff891692820192909252606081018790526080810186905260019060a0016020604051602081039080840390855afa158015610f6f573d6000803e3d6000fd5b5050604051601f1901519150506001600160a01b038116610f9b57506000925060019150829050610fa5565b9250600091508190505b9450945094915050565b6040518061016001604052806000815260200160006001600160a01b0316815260200160008152602001600081526020016000815260200160006001600160a01b03168152602001600015158152602001606081526020016000151581526020016060815260200161109f6040518061020001604052806000815260200160008152602001600081526020016000815260200160008152602001600081526020016000815260200160008152602001606081526020016060815260200160608152602001606081526020016000151581526020016000151581526020016000151581526020016000151581525090565b905290565b6000806000606084860312156110b957600080fd5b505081359360208301359350604090920135919050565b6001600160a01b03811681146110e557600080fd5b50565b6000602082840312156110fa57600080fd5b813561045c816110d0565b60008083601f84011261111757600080fd5b50813567ffffffffffffffff81111561112f57600080fd5b6020830191508360208260051b850101111561114a57600080fd5b9250929050565b6000806000806060858703121561116757600080fd5b8435611172816110d0565b93506020850135611182816110d0565b9250604085013567ffffffffffffffff81111561119e57600080fd5b6111aa87828801611105565b95989497509550505050565b6000806000606084860312156111cb57600080fd5b833567ffffffffffffffff8111156111e257600080fd5b840161012081870312156111f557600080fd5b95602085013595506040909401359392505050565b60008083601f84011261121c57600080fd5b50813567ffffffffffffffff81111561123457600080fd5b60208301915083602082850101111561114a57600080fd5b6000806000806060858703121561126257600080fd5b843561126d816110d0565b935060208501359250604085013567ffffffffffffffff81111561129057600080fd5b6111aa8782880161120a565b60005b838110156112b757818101518382015260200161129f565b50506000910152565b600081518084526112d881602086016020860161129c565b601f01601f19169290920160200192915050565b60208152600061045c60208301846112c0565b60008060006060848603121561131457600080fd5b833561131f816110d0565b9250602084013561132f816110d0565b929592945050506040919091013590565b805182526020810151602083015260408101516040830152606081015160608301526080810151608083015260a081015160a083015260c081015160c083015260e081015160e083015260006101008201516102006101008501526113a96102008501826112c0565b90506101208301518482036101208601526113c482826112c0565b9150506101408301518482036101408601526113e082826112c0565b9150506101608301518482036101608601526113fc82826112c0565b91505061018083015161141461018086018215159052565b506101a083015161142a6101a086018215159052565b506101c08301516114406101c086018215159052565b506101e08301516114566101e086018215159052565b509392505050565b60208152815160208201526000602083015161148560408401826001600160a01b03169052565b506040830151606083015260608301516080830152608083015160a083015260a08301516114be60c08401826001600160a01b03169052565b5060c083015180151560e08401525060e08301516101606101008401526114e96101808401826112c0565b905061010084015161150061012085018215159052565b50610120840151838203601f190161014085015261151e82826112c0565b915050610140840151601f198483030161016085015261153e8282611340565b95945050505050565b60008060008060008060008060a0898b03121561156357600080fd5b883561156e816110d0565b9750602089013561157e816110d0565b9650604089013567ffffffffffffffff81111561159a57600080fd5b6115a68b828c01611105565b909750955050606089013567ffffffffffffffff8111156115c657600080fd5b6115d28b828c01611105565b909550935050608089013567ffffffffffffffff8111156115f257600080fd5b6115fe8b828c0161120a565b999c989b5096995094979396929594505050565b60006020828403121561162457600080fd5b5035919050565b60008060008060008060a0878903121561164457600080fd5b863561164f816110d0565b9550602087013561165f816110d0565b94506040870135935060608701359250608087013567ffffffffffffffff81111561168957600080fd5b61169589828a0161120a565b979a9699509497509295939492505050565b634e487b7160e01b600052603260045260246000fd5b6000808335601e198436030181126116d457600080fd5b83018035915067ffffffffffffffff8211156116ef57600080fd5b60200191503681900382131561114a57600080fd5b6000808585111561171457600080fd5b8386111561172157600080fd5b5050820193919092039150565b80356001600160e01b0319811690600484101561175d576001600160e01b0319808560040360031b1b82161691505b5092915050565b634e487b7160e01b600052604160045260246000fd5b604051610200810167ffffffffffffffff8111828210171561179e5761179e611764565b60405290565b604051610160810167ffffffffffffffff8111828210171561179e5761179e611764565b604051601f8201601f1916810167ffffffffffffffff811182821017156117f1576117f1611764565b604052919050565b600067ffffffffffffffff82111561181357611813611764565b50601f01601f191660200190565b60008060006060848603121561183657600080fd5b8335611841816110d0565b925060208401359150604084013567ffffffffffffffff81111561186457600080fd5b8401601f8101861361187557600080fd5b8035611888611883826117f9565b6117c8565b81815287602083850101111561189d57600080fd5b816020840160208301376000602083830101528093505050509250925092565b8183823760009101908152919050565b851515815284602082015260806040820152826080820152828460a0830137600060a084830101526000601f19601f850116820160a083820301606084015261191960a08201856112c0565b98975050505050505050565b8051611930816110d0565b919050565b8051801515811461193057600080fd5b600082601f83011261195657600080fd5b8151611964611883826117f9565b81815284602083860101111561197957600080fd5b610ae082602083016020870161129c565b6000610200828403121561199d57600080fd5b6119a561177a565b825181526020808401519082015260408084015190820152606080840151908201526080808401519082015260a0808401519082015260c0808401519082015260e0808401519082015261010083015190915067ffffffffffffffff811115611a0d57600080fd5b611a1984828501611945565b6101008301525061012082015167ffffffffffffffff811115611a3b57600080fd5b611a4784828501611945565b6101208301525061014082015167ffffffffffffffff811115611a6957600080fd5b611a7584828501611945565b6101408301525061016082015167ffffffffffffffff811115611a9757600080fd5b611aa384828501611945565b61016083015250611ab76101808301611935565b610180820152611aca6101a08301611935565b6101a0820152611add6101c08301611935565b6101c0820152611af06101e08301611935565b6101e082015292915050565b600060208284031215611b0e57600080fd5b815167ffffffffffffffff811115611b2557600080fd5b82016101608185031215611b3857600080fd5b611b406117a4565b81518152611b5060208301611925565b6020820152604082810151908201526060808301519082015260808083015190820152611b7f60a08301611925565b60a0820152611b9060c08301611935565b60c082015260e082015167ffffffffffffffff811115611baf57600080fd5b611bbb86828501611945565b60e083015250611bce6101008301611935565b61010082015261012082015167ffffffffffffffff811115611bef57600080fd5b611bfb86828501611945565b6101208301525061014082015167ffffffffffffffff811115611c1d57600080fd5b611c298682850161198a565b61014083015250949350505050565b600060208284031215611c4a57600080fd5b5051919050565b634e487b7160e01b600052602160045260246000fdfea26469706673582212200ef1d5a4b915e6d1b1efe883f8a24132dcadca1546bfe80108355e96885e7cc464736f6c634300081c0033a2646970667358221220145ba479264c02d5c05470f7d469434b02925c6a4bd8f357a5cd380089b7455a64736f6c634300081c0033",
  "linkReferences": {},
  "deployedLinkReferences": {}
}