{
  "_format": "hh-sol-artifact-1",
  "contractName": "AddressDiscovery",
  "sourceName": "contracts/AddressDiscovery.sol",
  "abi": [
    {
      "inputs": [
        {
          "internalType": "address",
          "name": "_authority",
          "type": "address"
        },
        {
          "internalType": "address",
          "name": "_admin",
          "type": "address"
        }
      ],
      "stateMutability": "nonpayable",
      "type": "constructor"
    },
    {
      "inputs": [],
      "name": "AccessControlBadConfirmation",
      "type": "error"
    },
    {
      "inputs": [
        {
          "internalType": "address",
          "name": "account",
          "type": "address"
        },
        {
          "internalType": "bytes32",
          "name": "neededRole",
          "type": "bytes32"
        }
      ],
      "name": "AccessControlUnauthorizedAccount",
      "type": "error"
    },
    {
      "anonymous": false,
      "inputs": [
        {
          "indexed": false,
          "internalType": "address",
          "name": "member",
          "type": "address"
        }
      ],
      "name": "DisabledAddress",
      "type": "event"
    },
    {
      "anonymous": false,
      "inputs": [
        {
          "indexed": false,
          "internalType": "address",
          "name": "member",
          "type": "address"
        }
      ],
      "name": "EnabledAddress",
      "type": "event"
    },
    {
      "anonymous": false,
      "inputs": [
        {
          "indexed": true,
          "internalType": "bytes32",
          "name": "role",
          "type": "bytes32"
        },
        {
          "indexed": true,
          "internalType": "bytes32",
          "name": "previousAdminRole",
          "type": "bytes32"
        },
        {
          "indexed": true,
          "internalType": "bytes32",
          "name": "newAdminRole",
          "type": "bytes32"
        }
      ],
      "name": "RoleAdminChanged",
      "type": "event"
    },
    {
      "anonymous": false,
      "inputs": [
        {
          "indexed": true,
          "internalType": "bytes32",
          "name": "role",
          "type": "bytes32"
        },
        {
          "indexed": true,
          "internalType": "address",
          "name": "account",
          "type": "address"
        },
        {
          "indexed": true,
          "internalType": "address",
          "name": "sender",
          "type": "address"
        }
      ],
      "name": "RoleGranted",
      "type": "event"
    },
    {
      "anonymous": false,
      "inputs": [
        {
          "indexed": true,
          "internalType": "bytes32",
          "name": "role",
          "type": "bytes32"
        },
        {
          "indexed": true,
          "internalType": "address",
          "name": "account",
          "type": "address"
        },
        {
          "indexed": true,
          "internalType": "address",
          "name": "sender",
          "type": "address"
        }
      ],
      "name": "RoleRevoked",
      "type": "event"
    },
    {
      "anonymous": false,
      "inputs": [
        {
          "indexed": false,
          "internalType": "bytes32",
          "name": "key",
          "type": "bytes32"
        },
        {
          "indexed": false,
          "internalType": "address",
          "name": "newAddress",
          "type": "address"
        }
      ],
      "name": "UpdateAddress",
      "type": "event"
    },
    {
      "inputs": [],
      "name": "AUDIT_ROLE",
      "outputs": [
        {
          "internalType": "bytes32",
          "name": "",
          "type": "bytes32"
        }
      ],
      "stateMutability": "view",
      "type": "function"
    },
    {
      "inputs": [],
      "name": "COMPLIANCE_ROLE",
      "outputs": [
        {
          "internalType": "bytes32",
          "name": "",
          "type": "bytes32"
        }
      ],
      "stateMutability": "view",
      "type": "function"
    },
    {
      "inputs": [],
      "name": "DEFAULT_ADMIN_ROLE",
      "outputs": [
        {
          "internalType": "bytes32",
          "name": "",
          "type": "bytes32"
        }
      ],
      "stateMutability": "view",
      "type": "function"
    },
    {
      "inputs": [],
      "name": "ISSUER_ROLE",
      "outputs": [
        {
          "internalType": "bytes32",
          "name": "",
          "type": "bytes32"
        }
      ],
      "stateMutability": "view",
      "type": "function"
    },
    {
      "inputs": [],
      "name": "NET_ADM_ROLE",
      "outputs": [
        {
          "internalType": "bytes32",
          "name": "",
          "type": "bytes32"
        }
      ],
      "stateMutability": "view",
      "type": "function"
    },
    {
      "inputs": [
        {
          "internalType": "bytes32",
          "name": "",
          "type": "bytes32"
        }
      ],
      "name": "addressDiscovery",
      "outputs": [
        {
          "internalType": "address",
          "name": "",
          "type": "address"
        }
      ],
      "stateMutability": "view",
      "type": "function"
    },
    {
      "inputs": [
        {
          "internalType": "address",
          "name": "newAuthority",
          "type": "address"
        }
      ],
      "name": "changeAuthority",
      "outputs": [],
      "stateMutability": "nonpayable",
      "type": "function"
    },
    {
      "inputs": [
        {
          "internalType": "address",
          "name": "member",
          "type": "address"
        }
      ],
      "name": "disableAddress",
      "outputs": [],
      "stateMutability": "nonpayable",
      "type": "function"
    },
    {
      "inputs": [
        {
          "internalType": "address",
          "name": "member",
          "type": "address"
        }
      ],
      "name": "enableAddress",
      "outputs": [],
      "stateMutability": "nonpayable",
      "type": "function"
    },
    {
      "inputs": [
        {
          "internalType": "bytes32",
          "name": "role",
          "type": "bytes32"
        }
      ],
      "name": "getRoleAdmin",
      "outputs": [
        {
          "internalType": "bytes32",
          "name": "",
          "type": "bytes32"
        }
      ],
      "stateMutability": "view",
      "type": "function"
    },
    {
      "inputs": [
        {
          "internalType": "bytes32",
          "name": "role",
          "type": "bytes32"
        },
        {
          "internalType": "address",
          "name": "account",
          "type": "address"
        }
      ],
      "name": "grantRole",
      "outputs": [],
      "stateMutability": "nonpayable",
      "type": "function"
    },
    {
      "inputs": [
        {
          "internalType": "bytes32",
          "name": "role",
          "type": "bytes32"
        },
        {
          "internalType": "address",
          "name": "account",
          "type": "address"
        }
      ],
      "name": "hasRole",
      "outputs": [
        {
          "internalType": "bool",
          "name": "",
          "type": "bool"
        }
      ],
      "stateMutability": "view",
      "type": "function"
    },
    {
      "inputs": [
        {
          "internalType": "address",
          "name": "member",
          "type": "address"
        }
      ],
      "name": "isEnabledAddress",
      "outputs": [
        {
          "internalType": "bool",
          "name": "isEnabled",
          "type": "bool"
        }
      ],
      "stateMutability": "view",
      "type": "function"
    },
    {
      "inputs": [
        {
          "internalType": "bytes32",
          "name": "role",
          "type": "bytes32"
        },
        {
          "internalType": "address",
          "name": "callerConfirmation",
          "type": "address"
        }
      ],
      "name": "renounceRole",
      "outputs": [],
      "stateMutability": "nonpayable",
      "type": "function"
    },
    {
      "inputs": [
        {
          "internalType": "bytes32",
          "name": "role",
          "type": "bytes32"
        },
        {
          "internalType": "address",
          "name": "account",
          "type": "address"
        }
      ],
      "name": "revokeRole",
      "outputs": [],
      "stateMutability": "nonpayable",
      "type": "function"
    },
    {
      "inputs": [
        {
          "internalType": "bytes4",
          "name": "interfaceId",
          "type": "bytes4"
        }
      ],
      "name": "supportsInterface",
      "outputs": [
        {
          "internalType": "bool",
          "name": "",
          "type": "bool"
        }
      ],
      "stateMutability": "view",
      "type": "function"
    },
    {
      "inputs": [
        {
          "internalType": "bytes32",
          "name": "smartContract",
          "type": "bytes32"
        },
        {
          "internalType": "address",
          "name": "newAddress",
          "type": "address"
        }
      ],
      "name": "updateAddress",
      "outputs": [],
      "stateMutability": "nonpayable",
      "type": "function"
    }
  ],
  "bytecode": "0x608060405234801561001057600080fd5b50604051610fc2380380610fc283398101604081905261002f916103c2565b600280546001600160a01b038084166001600160a01b0319928316179092556001805492851692909116919091179055818161006c6000826100d1565b506100768261017d565b61008060006101ca565b50506040516b4e45545f41444d5f524f4c4560a01b60208201526100ca90602c01604051602081830303815290604052805190602001206100c561031b60201b60201c565b61031f565b50506103f5565b6000828152602081815260408083206001600160a01b038516845290915281205460ff16610173576000838152602081815260408083206001600160a01b03861684529091529020805460ff1916600117905561012b3390565b6001600160a01b0316826001600160a01b0316847f2f8788117e7eff1d82e926ec794901d17c78024a50270940304540a733656f0d60405160405180910390a4506001610177565b5060005b92915050565b6040516a4953535545525f524f4c4560a81b60208201526101bd90602b0160405160208183030381529060405280519060200120826100d160201b60201c565b506101c7816101ca565b50565b6002546001600160a01b031632146102435760405162461bcd60e51b815260206004820152603160248201527f437573746f6d416363657373436f6e74726f6c3a204578636c757369766f207060448201527030b9309030b236b4b734b9ba3930b237b960791b60648201526084015b60405180910390fd5b6001600160a01b03811660009081526003602052604090205460ff16156102c15760405162461bcd60e51b815260206004820152602c60248201527f437573746f6d416363657373436f6e74726f6c3a206163636f756e7420616c7260448201526b1958591e48195b98589b195960a21b606482015260840161023a565b6001600160a01b038116600081815260036020908152604091829020805460ff1916600117905590519182527f89935d4bfbef0b4918d6a3c07a40b49687f7df9fcf6cda771f15a5bf2659f231910160405180910390a150565b3390565b60008281526020819052604090206001015461033a8161034a565b61034483836100d1565b50505050565b6101c781336000828152602081815260408083206001600160a01b038516845290915290205460ff166103a25760405163e2517d3f60e01b81526001600160a01b03821660048201526024810183905260440161023a565b5050565b80516001600160a01b03811681146103bd57600080fd5b919050565b600080604083850312156103d557600080fd5b6103de836103a6565b91506103ec602084016103a6565b90509250929050565b610bbe806104046000396000f3fe608060405234801561001057600080fd5b506004361061011b5760003560e01c80635036258b116100b25780639eefdd8711610081578063d547741f11610066578063d547741f14610285578063de01c57414610298578063e8d5a48a146102a057600080fd5b80639eefdd871461026a578063a217fddf1461027d57600080fd5b80635036258b14610210578063503642bb1461022357806382aefa241461022b57806391d148541461023357600080fd5b8063248a9ca3116100ee578063248a9ca3146101b45780632f2ff15d146101d757806336568abe146101ea57806340129a40146101fd57600080fd5b806301ffc9a714610120578063062d3bd714610148578063116877cc1461015e578063118c894b14610173575b600080fd5b61013361012e366004610ac3565b6102cc565b60405190151581526020015b60405180910390f35b610150610365565b60405190815260200161013f565b61017161016c366004610b28565b6103ab565b005b61019c610181366004610b43565b6004602052600090815260409020546001600160a01b031681565b6040516001600160a01b03909116815260200161013f565b6101506101c2366004610b43565b60009081526020819052604090206001015490565b6101716101e5366004610b5c565b610404565b6101716101f8366004610b5c565b61042f565b61017161020b366004610b5c565b610480565b61017161021e366004610b28565b61052e565b610150610699565b6101506106ca565b610133610241366004610b5c565b6000918252602082815260408084206001600160a01b0393909316845291905290205460ff1690565b610171610278366004610b28565b6106e9565b610150600081565b610171610293366004610b5c565b61084c565b610150610871565b6101336102ae366004610b28565b6001600160a01b031660009081526003602052604090205460ff1690565b60007fffffffff0000000000000000000000000000000000000000000000000000000082167f7965db0b00000000000000000000000000000000000000000000000000000000148061035f57507f01ffc9a7000000000000000000000000000000000000000000000000000000007fffffffff000000000000000000000000000000000000000000000000000000008316145b92915050565b6040517f434f4d504c49414e43455f524f4c4500000000000000000000000000000000006020820152602f015b6040516020818303038152906040528051906020012081565b60006103b681610891565b6001546103cb906001600160a01b031661089e565b6103d4826108e2565b506001805473ffffffffffffffffffffffffffffffffffffffff19166001600160a01b0392909216919091179055565b60008281526020819052604090206001015461041f81610891565b6104298383610926565b50505050565b6001600160a01b0381163314610471576040517f6697b23200000000000000000000000000000000000000000000000000000000815260040160405180910390fd5b61047b82826109d0565b505050565b6040516b4e45545f41444d5f524f4c4560a01b6020820152602c01604051602081830303815290604052805190602001206104ba81610891565b600083815260046020908152604091829020805473ffffffffffffffffffffffffffffffffffffffff19166001600160a01b0386169081179091558251868152918201527fcf0ecd10d1399d98978051da48095f368d6f1fa3292d5fc09135b92aa2a4d733910160405180910390a1505050565b6002546001600160a01b031632146105b35760405162461bcd60e51b815260206004820152603160248201527f437573746f6d416363657373436f6e74726f6c3a204578636c757369766f207060448201527f6172612061646d696e6973747261646f7200000000000000000000000000000060648201526084015b60405180910390fd5b6001600160a01b03811660009081526003602052604090205460ff166106415760405162461bcd60e51b815260206004820152602d60248201527f437573746f6d416363657373436f6e74726f6c3a206163636f756e7420616c7260448201527f656164792064697361626c65640000000000000000000000000000000000000060648201526084016105aa565b6001600160a01b038116600081815260036020908152604091829020805460ff1916905590519182527f3890f76dc2dc21d31c10c19921480630342203b698a442bc887194019a98897891015b60405180910390a150565b6040517f41554449545f524f4c45000000000000000000000000000000000000000000006020820152602a01610392565b6040516a4953535545525f524f4c4560a81b6020820152602b01610392565b6002546001600160a01b031632146107695760405162461bcd60e51b815260206004820152603160248201527f437573746f6d416363657373436f6e74726f6c3a204578636c757369766f207060448201527f6172612061646d696e6973747261646f7200000000000000000000000000000060648201526084016105aa565b6001600160a01b03811660009081526003602052604090205460ff16156107f85760405162461bcd60e51b815260206004820152602c60248201527f437573746f6d416363657373436f6e74726f6c3a206163636f756e7420616c7260448201527f6561647920656e61626c6564000000000000000000000000000000000000000060648201526084016105aa565b6001600160a01b038116600081815260036020908152604091829020805460ff1916600117905590519182527f89935d4bfbef0b4918d6a3c07a40b49687f7df9fcf6cda771f15a5bf2659f231910161068e565b60008281526020819052604090206001015461086781610891565b61042983836109d0565b6040516b4e45545f41444d5f524f4c4560a01b6020820152602c01610392565b61089b8133610a53565b50565b6040516a4953535545525f524f4c4560a81b60208201526108d890602b0160405160208183030381529060405280519060200120826109d0565b5061089b8161052e565b6040516a4953535545525f524f4c4560a81b602082015261091c90602b016040516020818303038152906040528051906020012082610926565b5061089b816106e9565b6000828152602081815260408083206001600160a01b038516845290915281205460ff166109c8576000838152602081815260408083206001600160a01b03861684529091529020805460ff191660011790556109803390565b6001600160a01b0316826001600160a01b0316847f2f8788117e7eff1d82e926ec794901d17c78024a50270940304540a733656f0d60405160405180910390a450600161035f565b50600061035f565b6000828152602081815260408083206001600160a01b038516845290915281205460ff16156109c8576000838152602081815260408083206001600160a01b0386168085529252808320805460ff1916905551339286917ff6391f5c32d9c69d2a47ea670b442974b53935d1edc7fd64eb21e047a839171b9190a450600161035f565b6000828152602081815260408083206001600160a01b038516845290915290205460ff16610abf576040517fe2517d3f0000000000000000000000000000000000000000000000000000000081526001600160a01b0382166004820152602481018390526044016105aa565b5050565b600060208284031215610ad557600080fd5b81357fffffffff0000000000000000000000000000000000000000000000000000000081168114610b0557600080fd5b9392505050565b80356001600160a01b0381168114610b2357600080fd5b919050565b600060208284031215610b3a57600080fd5b610b0582610b0c565b600060208284031215610b5557600080fd5b5035919050565b60008060408385031215610b6f57600080fd5b82359150610b7f60208401610b0c565b9050925092905056fea26469706673582212207c12273c717f36475b747f3bef65a9c0fec06037d604669d8cbac1a8d4945d6164736f6c634300081c0033",
  "linkReferences": {},
  "deployedLinkReferences": {}
}